:020000040805ED
:1050000040350020AD540508C9530508CB530508A9
:10501000CD530508CF530508D1530508D3530508D0
:1050200000000000000000000000000051780508AA
:10503000D553050800000000F17705086D760508D6
:10504000D7530508D9530508DB530508DD53050878
:10505000DF530508E1530508E3530508E553050848
:10506000E7530508E9530508EB530508ED53050818
:10507000EF530508F1530508F3530508F5530508E8
:10508000F7530508F9530508FB530508FD530508B8
:10509000FF53050801540508035405080554050885
:1050A00007540508095405080B5405080D54050854
:1050B0000F54050811540508135405081554050824
:1050C00017540508195405081B5405081D540508F4
:1050D0001F540508215405082354050825540508C4
:1050E00027540508295405082B5405082D54050894
:1050F0002F54050831540508335405083554050864
:1051000037540508395405083B5405083D54050833
:105110003F54050841540508435405084554050803
:1051200047540508495405084B5405084D540508D3
:105130004F540508515405085354050855540508A3
:1051400057540508595405085B5405085D54050873
:105150005F54050861540508635405086554050843
:1051600067540508695405086B5405086D54050813
:105170006F5405080000000071540508000000008D
:1051800073540508755405087754050879540508C3
:105190007B5405087D5405087F5405088154050893
:1051A0008354050885540508875405088954050863
:1051B0008B5405088D5405088F5405089154050833
:1051C0009354050895540508975405089954050803
:1051D0009B5405089D5405089F540508A1540508D3
:1051E000A3540508A5540508A7540508A9540508A3
:1051F000AB5405080348044B834202D0034B03B170
:105200001847704780010020800100200000000046
:10521000064B0749C91A891048BF0131491003D00C
:10522000044B0BB101481847704700BF80010020B4
:10523000800100200000000010B5064C237843B91F
:10524000FFF7D8FF044B13B10448AFF300800123EC
:10525000237010BD8001002000000000E0870508D9
:1052600008B5044B1BB104490448AFF30080BDE806
:105270000840CDE70000000084010020E087050819
:10528000A3F5803A704700BF154B002B08BF114BA8
:105290009D46FFF7F5FF00218B460F461148124A45
:1052A000121A03F0BBF80C4B002B00D098470B4BA5
:1052B000002B00D098470020002104000D000B486F
:1052C00002F0E2FF03F010F82000290000F030F8AF
:1052D00002F0E0FF000008000000000000000000F5
:1052E00040350020800100203C250020BD820508BB
:1052F00008B5054C2046082100F0B3FC4FF4FA70C5
:1053000001F0FEFCF6E700BF000C024208B500F019
:105310000DFA002008BD0020704710B5044603F0C8
:10532000CFF8411C2046BDE8104003F05BBA0000F6
:1053300000B589B0FFF7EAFF00B1FEE7FFF7EBFF2A
:10534000044600B1FEE702F003FE00F02DFA14223D
:10535000214603A803F062F8154B0821DA6C1548C2
:1053600042F00802DA64DB6C012203F008030293C6
:105370000125029B00F070FC0823CDE903350323CF
:1053800003A90C480693059500F09EFB0A48FFF719
:10539000C4FF23464FF400720849CDE90054084881
:1053A00001F04EFA01F024FB064800F023F9FEE775
:1053B00000100240000C0242A0860508AC860508D9
:1053C000F1520508B7860508FEE7FEE7FEE7FEE7AF
:1053D000FEE7FEE7FEE7FEE7FEE7FEE7FEE7FEE7A5
:1053E000FEE7FEE7FEE7FEE7FEE7FEE7FEE7FEE795
:1053F000FEE7FEE7FEE7FEE7FEE7FEE7FEE7FEE785
:10540000FEE7FEE7FEE7FEE7FEE7FEE7FEE7FEE774
:10541000FEE7FEE7FEE7FEE7FEE7FEE7FEE7FEE764
:10542000FEE7FEE7FEE7FEE7FEE7FEE7FEE7FEE754
:10543000FEE7FEE7FEE7FEE7FEE7FEE7FEE7FEE744
:10544000FEE7FEE7FEE7FEE7FEE7FEE7FEE7FEE734
:10545000FEE7FEE7FEE7FEE7FEE7FEE7FEE7FEE724
:10546000FEE7FEE7FEE7FEE7FEE7FEE7FEE7FEE714
:10547000FEE7FEE7FEE7FEE7FEE7FEE7FEE7FEE704
:10548000FEE7FEE7FEE7FEE7FEE7FEE7FEE7FEE7F4
:10549000FEE7FEE7FEE7FEE7FEE7FEE7FEE7FEE7E4
:1054A000FEE7FEE7FEE7FEE7FEE7FEE708B5174B7F
:1054B00083F30A88164A82F3098883F30B8800F085
:1054C0008BF9144B14498B4212D30020134B14490F
:1054D0008B4218D3FFF7D8FE186850F8224058685E
:1054E00040F82240013298688242F5D30C33EAE753
:1054F0000022F8E71C6844F8220001325C68A242EE
:10550000F8D30833E4E70022F8E700BF4025002085
:1055100040350020208805083888050838880508A7
:105520004888050803685A1C1F2A03440260197141
:1055300005D90023202140F8043B00F0E3B8704770
:105540002DE9FF410024642A07460D46CDE90144B8
:10555000039406D1A14204DA2D21FFF7E3FF0124D1
:105560006D4201AB002698460A20B5FBF0F100FB26
:105570001152303203F8012B2A46092A0D4606F152
:105580000106F2D83546013D384618F80510FFF7F8
:10559000C9FF002DF7D1A01904B0BDE8F081F0B526
:1055A000002485B001AB06461F46CDE901440394B3
:1055B00001F00F00105C090904F1010403F8010B6C
:1055C000F6D12546013D3046795DFFF7ABFF002D52
:1055D000F8D1204605B0F0BD70B506460D46002452
:1055E000295D09B9204670BD3046FFF79BFF0134A5
:1055F000F6E700000FB400202DE9F04782468AB09C
:1056000012AC54F8045BDFF8EC80DFF8EC903B4E12
:1056100000940190297859B9019919B102A800F0B4
:1056200071F8824450460AB0BDE8F04704B07047B4
:10563000252905F1010756D16978692910D018D8B4
:10564000582933D008D8252947D0414601A8FFF76B
:10565000C3FF82443D46DDE763293BD06429F4D192
:10566000642254F8041B01A8FFF76AFF8244AF1CB0
:10567000F0E77039CBB2082BE7D80829E5D801A3A9
:1056800053F821F0BB5605084B5605084B56050844
:10569000C95605084B560508A95605084B56050876
:1056A0004B560508C55605087522DAE7144A54F822
:1056B000041B01A8FFF773FFD8E7494601A8FFF7CD
:1056C0008BFF82443246F2E754F8041B01A8FFF72F
:1056D00083FFCBE754F8041BC9B201A8FFF722FFF0
:1056E0000AF1010AC3E701A8FFF71CFF0AF1010A4A
:1056F000B0E700BFDA860508D7860508EC860508FE
:10570000FC86050837B5084C6369984748B9E56ACF
:10571000A847C307FCD4236A019303B0BDE8304017
:105720001847002003B030BD6887050810B5094C44
:105730000020A3689847236902209847A46A4FF481
:10574000E1310120A0472346BDE81040012115208A
:10575000184700BF688705087047000038B50F4B31
:105760000546187808B9012038BD4FF47A73B3FBA9
:10577000F0F30B4A1068B0FBF3F000F0C9FF0446E9
:105780000028F0D1072DEED8024629464FF0FF3011
:1057900000F08CFF034B20461D60E5E70001002070
:1057A000080100200401002010B5042000F06CFF67
:1057B00000F014F80720FFF7D1FF044618B9FFF7EF
:1057C000CBFF204610BD0124FBE70000014B186809
:1057D000704700BF9C01002070470000214B224908
:1057E0001A6810B5120755BFD3F894201A68C2F38F
:1057F0000322C2F3031251F8220099681B4C01F0F6
:105800000C01082903D00C290CD0042927D1184AEF
:1058100022609B68174AC3F30313D25C2368D3400A
:10582000236010BDD968DA6801F00301023901294B
:1058300098BF0F49C2F3031202F1010294BFB1FBFA
:10584000F2F2B0FBF2F2D968D868C1F306214A43FC
:10585000C0F3416101314900B2FBF1F2D8E72060A9
:10586000D7E700BF00100240248705080801002088
:105870000024F4000C870508064B82B0186800234A
:1058800082B262F30F03000C60F31F43184602B0AC
:10589000704700BF648705080120704700207047EB
:1058A000002070476FF00300704700207047002011
:1058B0007047002382B00193019802B070476FF0E7
:1058C00003007047002382B00193019802B0704733
:1058D00010B50C46014630B12CB10448A2B200F01C
:1058E000ADFE204610BD6FF00400FBE7A0010020D4
:1058F0000A4608B5014640B13AB14FF47A730448FC
:1059000092B200F070FD002008BD6FF00400FBE7CC
:10591000A0010020274B30B5DA6C89B042F00102BB
:10592000DA64DA6C072502F001020092009ADA6C60
:10593000214C42F00102DA64DA6C204602F00102E6
:105940000192019A1A6E03A942F480421A661B6EF4
:105950004FF4007203F480430293029B0223CDE9CB
:105960000323069301230795059300F0ADF84FF448
:105970008063204603A90393079500F0A5F84FF430
:10598000E1330E480E490C22C0E900130023C0E9A0
:1059900005234FF40042C0E90233C0E90723036145
:1059A000436200F0B0FD003818BF0120404209B04A
:1059B00030BD00BF0010024000000242A0010020E4
:1059C0000038014000207047244B9A68D96812F0D3
:1059D0000C0205D00C2A15D101F00301012918D1C0
:1059E00019681F48090755BFD3F894101968C1F307
:1059F0000321C1F3031150F8210012B10C2A09D080
:105A000000207047042A27D0082A164818BF002013
:105A100070470020D968DA6801F00301C2F303126D
:105A2000022902F1010208D0032906D0B0FBF2F0EE
:105A3000D968C1F30621484306E00A49D868B1FB9A
:105A4000F2F2C0F306205043DB68C3F34163013335
:105A50005B00B0FBF3F07047024870470010024053
:105A6000248705080024F40008B5FFF7ADFF044BB8
:105A7000044A9B68C3F30313D35CD84008BD00BF3E
:105A8000001002400C87050808B5FFF7EDFF044B36
:105A9000044A9B68C3F30223D35CD84008BD00BF0F
:105AA000001002401C87050808B5FFF7DDFF044B16
:105AB000044A9B68C3F3C223D35CD84008BD00BF2F
:105AC000001002401C87050800232DE9F04F5E4CB2
:105AD000DFF87881DFF878910A6832FA03F501D1AE
:105AE000BDE8F08F4FF0010C0CFA03FC1CEA020237
:105AF00000F09C8003264D684FEA430E25F0100A03
:105B00000AF1FF3706FA0EF6012F6FEA060611D8E2
:105B1000876807EA060BCF6807FA0EF747EA0B0714
:105B20008760476827EA0C0CC5F300179F4047EAD7
:105B30000C074760C768BAF1020F07EA060C8F68C6
:105B400007FA0EF747EA0C07C76016D14FF00F0CA3
:105B50004FEAD30A00EB8A0A03F0070BDAF8207049
:105B60004FEA8B0B0CFA0BFC27EA0C0C0F6907FAB7
:105B70000BF747EA0C07CAF8207007683E4005F0AB
:105B8000030707FA0EF73E430660EE004ED54FF0CE
:105B90000F0C23F0030707F1804707F53D3703F0AB
:105BA000030E3E6E4FEACE0E0CFA0EFC26EA0C0CEB
:105BB000284EB0423CD006F58066B0423AD006F599
:105BC0008066B04238D006F58066B04236D006F521
:105BD0008066B04234D0404534D048450CBF0626DC
:105BE000072606FA0EF646EA0C063E66D743D4F8B8
:105BF000806015F4803F0CBF3E401643C4F88060BF
:105C0000D4F8846015F4003F0CBF3E401643C4F83E
:105C10008460266815F4801F0CBF3E401643266042
:105C20006668AD0254BF3E4016436660013353E7D9
:105C30000026D6E70126D4E70226D2E70326D0E7DE
:105C40000426CEE70526CCE700F402400014024209
:105C500000180242000002420AB18161704781626D
:105C60007047436901EA030221EA030141EA024164
:105C7000816170477047704770477047D0F888203F
:105C800010B5222A0446036830D15B6AB0F8601070
:105C9000826D0B401370836D01338365B0F85E3005
:105CA000013B9BB2A0F85E30B0F85E2092B2CAB958
:105CB0000368196821F490711960996821F0010155
:105CC00099602021C0F888100267C26E012A0AD1AB
:105CD0001A68B0F85C1022F010021A60FFF7CDFFCE
:105CE0000023E36610BDFFF7C6FFF9E79A6942F0AB
:105CF00008029A61F6E7D0F8882010B5222A0446F7
:105D000003682ED1596AB0F860201140826D22F8E4
:105D1000021B8265B0F85E20013A92B2A0F85E20C4
:105D2000B0F85E2092B2C2B9196821F4907119607E
:105D3000996821F0010199602021C0F8881002675C
:105D4000C26E012A0AD11A68B0F85C1022F0100263
:105D50001A60FFF792FF0023E36610BDFFF78BFF89
:105D6000F9E79A6942F008029A61F6E72DE9F84FDF
:105D700003680446DD69D3F800909E68D0F8882057
:105D8000222A40F085800027B0F86080B0F868A033
:105D9000DFF808B106F00106BAF1000F01D0AB063A
:105DA00014D4B4F85E309BB273B1B4F868209A4250
:105DB0000AD923689A6822F080529A60384A22678A
:105DC0001A6842F020021A60BDE8F88F2368A26DBD
:105DD0005B6A03EA08031370A36D0133A365B4F88B
:105DE0005E30013B9BB2A4F85E302368DD696A0730
:105DF0002AD0E8070AD519F4807F07D001221A6259
:105E0000D4F88C2042F00102C4F88C20A90708D5F0
:105E10003EB102221A62D4F88C2042F00402C4F887
:105E20008C206A0708D53EB104221A62D4F88C305F
:105E300043F00203C4F88C30D4F88C3023B12046F0
:105E4000FFF71AFFC4F88C70B4F85E2092B2002AF3
:105E5000A2D12368196821F480711960996801EA58
:105E60000B0199602021C4F888102267E26E012A94
:105E70000AD11A68204622F01002B4F85C101A60A9
:105E8000FFF7FBFEE76687E72046FFF7F4FEF9E73A
:105E90009A6942F008029A6196E700BFFEFFFFEFA1
:105EA0007D5C05082DE9F84F03680446DD69D3F8E9
:105EB00000909E68D0F88820222A40F08380002736
:105EC000B0F86080B0F868A0DFF804B106F0010611
:105ED000BAF1000F01D0AB0614D4B4F85E309BB217
:105EE00073B1B4F868209A420AD923689A6822F0FC
:105EF00080529A60374A22671A6842F020021A607C
:105F0000BDE8F88F2368A26D596A08EA010122F8FA
:105F1000021BA265B4F85E20013A92B2A4F85E209A
:105F2000DD696A072AD0E8070AD519F4807F07D00F
:105F300001221A62D4F88C2042F00102C4F88C20AD
:105F4000A90708D53EB102221A62D4F88C2042F08B
:105F50000402C4F88C206A0708D53EB104221A62F4
:105F6000D4F88C3043F00203C4F88C30D4F88C3071
:105F700023B12046FFF780FEC4F88C70B4F85E2091
:105F800092B2002AA4D12368196821F480711960A3
:105F9000996801EA0B0199602021C4F888102267F2
:105FA000E26E012A0AD11A68204622F01002B4F8E3
:105FB0005C101A60FFF761FEE76689E72046FFF78D
:105FC0005AFEF9E79A6942F008029A6198E700BF21
:105FD000FEFFFFEFF75C050838B504462169A268AB
:105FE00003680A4361691D68C0690A43A149024305
:105FF00029400A431A605A68E16822F440520A4371
:106000005A609D4AA16993421CBF226A11439A6853
:1060100022F06E4222F430620A439A60DA6A616AC0
:1060200022F00F020A43DA62944A93421BD1944B46
:10603000D3F8883003F00303013B022B00F2EA801F
:10604000904AB0F5004FD35C40F0AB80082B26D8C7
:10605000DFE813F0EF00E300A5002500E9002500CC
:1060600025002500F300884A934206D1844B874AD5
:10607000D3F8883003F00C03E3E7854A934219D143
:106080007F4BD3F8883003F03003202B00F0BD8025
:1060900007D8002B00F0CA80102B00F0C18001202F
:1060A0004EE0302BFBD1B0F5004F00F0C6804FF42E
:1060B000004093E0774A93420FD1714BD3F8883078
:1060C00003F0C003802B00F0A08004D8002B00F068
:1060D000AD80402BE1E7C02BE4E76F4A934212D139
:1060E000674BD3F8883003F44073B3F5007F00F0BA
:1060F0008C8005D8002B00F09980B3F5807FCCE729
:10610000B3F5407FCEE75C4A9342C8D15C4BD3F8ED
:10611000883003F44063B3F5006F18D006D85BB144
:10612000B3F5806FBBD1FFF74FFC07E0B3F5406FCD
:10613000B5D14FF400400BE0FFF7A6FC40B90020BA
:106140004FF00113A3660023C4E91C3338BD534844
:10615000534B626A656833F8122005EB4501B0FBCA
:10616000F2F399429BD8B3EB053F98D80023194628
:1061700001F0FCFE090241EA10616B080002C01840
:106180002A464FF0000341F1000101F0EFFE454BBC
:10619000A0F540729A4282D82368D860CFE73F4882
:1061A0004BE0082B3FF67BAF01A252F823F000BF73
:1061B000D5610508FF610508116205089F600508A3
:1061C000056205089F6005089F6005089F60050837
:1061D000AF600508FFF758FC0028B0D0616A304A6C
:1061E000636832F81120B0FBF2F000EB5300B0FB13
:1061F000F3F080B24FF6EF73A0F11002CAE7FFF799
:1062000053FCE9E7FFF7E0FBE6E7B0F5004FC6D047
:106210002248E3E7B0F5004FF1D1FFF745FC0AE073
:10622000B0F5004FEED1FFF7CFFB04E0B0F5004F23
:10623000D0D1FFF729FC002881D0616A184B626831
:1062400033F81130B0FBF3F3500800EB4300B0FB20
:10625000F2F04FF6EF7283B2A3F1100191423FF6D4
:106260001EAF20F00F00226880B2C3F34203184330
:10627000D06064E7F369FFCF008000400038014040
:1062800000100240A087050800440040A3870508CD
:1062900000480040004C0040005000400024F40042
:1062A000B0870508FFFC0F00836A10B5DA0706D532
:1062B0000168C46A4A6822F4003222434A609C079B
:1062C00006D50168046B4A6822F4803222434A6092
:1062D000590706D50168446B4A6822F4802222439C
:1062E0004A601A0706D50168846B4A6822F40042A6
:1062F00022434A60DC0606D50168C46B8A6822F432
:10630000805222438A60990606D50168046C8A6827
:1063100022F4005222438A605A0610D50168446C68
:106320004A68B4F5801F22F4801242EA04024A60EF
:1063300005D14A68846C22F4C00222434A601B06DD
:1063400006D50268C16C536823F400230B435360E5
:1063500010BD2DE9F04104460E4615461F46DDF8F6
:1063600018802268D36936EA03030CBF0123002397
:10637000AB4201D000201CE0B8F1FF3FF2D0FFF7A4
:1063800025FAC01B40452068036802D8B8F1000F09
:1063900011D123F4D0730360836823F00103836079
:1063A0002023C4F88430C4F888300023032084F804
:1063B0008030BDE8F0815A07D3D5C3691B05D0D51D
:1063C0004FF400630362036823F4D07303608368AF
:1063D00023F0010383602023C4F88430C4F888309C
:1063E000C4F88C30E1E72DE9F7439846D0F88430C3
:1063F0000446202B0E4617464FD100294BD0002AC9
:1064000049D090F88030012B47D00123002580F837
:1064100080302123C0F88C50C0F88430FFF7D6F9C3
:10642000A3688146B3F5805FA4F85470A4F8567051
:1064300003D123690BB935461E46002384F880300A
:10644000B4F856204B4692B2CDF8008042B94021B4
:106450002046FFF77EFF48B92023C4F8843006E0C9
:10646000002280212046FFF774FF18B1032003B0FB
:10647000BDE8F08322685EB935F8023BC3F3080338
:106480009362B4F85620013A92B2A4F85620D7E7A6
:1064900016F8013BF4E70120E9E70220E7E773B5CE
:1064A00000260446C0F88C60FFF790F92368054683
:1064B0001B681A0718D423681B685B070AD56FF09E
:1064C0007E43002200934FF480012B462046FFF7C5
:1064D00040FFA8B920230020C4F8843084F880004D
:1064E000C4F88830E0660CE06FF07E4332460093DB
:1064F0004FF4001103462046FFF72BFF0028DAD0A7
:10650000032002B070BD10B5044650B3D0F88430FB
:106510001BB980F88030FFF7ADFB24232268C4F854
:1065200084301368204623F001031360FFF754FD05
:10653000012816D0A36A13B12046FFF7B5FE2368E1
:106540002046BDE810405A6822F490425A609A688A
:1065500022F02A029A601A6842F001021A60FFF7DC
:106560009EBF012010BD0000002310B58165816829
:10657000A0F85C20B1F5805FA0F85E20036731D100
:1065800003696BBB40F2FF13A0F860300023C0F832
:106590008C302223C0F8883003689C6844F00104E2
:1065A0009C60446EB4F1005F2CD1B0F86840944216
:1065B00028D8B1F5805F23D104691C4A1C49002CFE
:1065C00008BF0A460267002280F880201A6842F459
:1065D00080721A609A6842F080529A60002010BD62
:1065E000FF23D1E721B90369002BF9D07F23CBE743
:1065F000B1F1805FC8D10369002BF7D03F23C3E717
:106600000A4ADFE7B1F5805F0ED10469094A0A49F9
:10661000002C08BF0A460267002280F880201A6812
:1066200042F490721A60D9E7024AF4E76D5D0508FA
:10663000A55E05087D5C0508F75C0508D0F8883084
:1066400010B4202B1BD1B9B1B2B190F88030012B1E
:1066500015D0012380F8803000230A4CC3660368FC
:10666000A34206D05C68240242BF1C6844F08064E8
:106670001C6010BCFFF778BF012010BC70470220DF
:10668000FBE700BF0080004007490302CA6803F42B
:10669000E06322F4E0621204120C134343F0BF6380
:1066A00043F40033CB60704700ED00E0164B30B58B
:1066B000DC68C4F30224C4F10703E51C032B28BFE4
:1066C0000323062D4FF0FF3598BF002405FA03F38E
:1066D00088BF043C21EA0303A34005FA04F422EA3C
:1066E0000402002843EA0203ACBF00F16040074AFD
:1066F0004FEA4313DBB2ABBF00F5614000F00F007F
:1067000080F80033135430BD00ED00E014ED00E0DC
:106710000138B0F1807F0BD24FF0E023E021054A31
:10672000586182F823100020072298611A6170478F
:106730000120704700ED00E0F8B506461B4B1C4CED
:106740001D6820680F46043001F0B9F8731C14D19D
:106750009FB1184B21685A6890688A602168C860A8
:106760002168906804314160216804319160226899
:1067700053611A6801321A60F8BD2368AD195D6073
:1067800007D30D4B18682168BDE8F840043101F0CB
:106790007FB80A4B18682168043101F079F8084B7A
:1067A0001A68AA4288BF1D60E6E700BF08040020FF
:1067B00030020020E00300203802002034020020D4
:1067C000BC030020064A13681968064B19B94FF03C
:1067D000FF321A6070471268D2681268F9E700BF8A
:1067E00034020020BC03002080B5114C114F124E22
:1067F000236833B9114B1B68012BF8D900F008FF4F
:10680000F5E700F011FFFB68DD68281D01F057F87F
:106810003368013B33602368013B236000F012FFC3
:10682000286B00F0A1FE284600F09EFEE0E700BFC6
:1068300080030020F40300207C0300203C020020A1
:106840002DE9F84F95008046DDE90A7A28460E4684
:10685000994600F005FE8346D0B15C2000F000FEB2
:10686000044690B15C22002101F0D8FD5846C4F8DE
:1068700030B02A46A52101F0D1FDD4F830B05EB980
:106880000F2F18D900F09EFFFEE7584600F06CFE6F
:106890004FF0FF30BDE8F88F731E04F134020F365D
:1068A00013F8011F02F8011B09B1B342F8D100230C
:1068B00084F84330E4E7261D3046E762E764043D90
:1068C00000F0E3FFC7F1100704F118005D4400F089
:1068D000DCFF4B464246216B2461A761646225F0D0
:1068E000070000F0E3FE2060BAF1000F01D0CAF803
:1068F000004000F099FE314B314F1A68DFF8C48038
:1069000001321A603D68002D4DD13C601B68012B9F
:106910001FD1C1464846013500F0ACFF102D09F1EA
:106920001409F7D1DFF8A090284D484600F0A2FFE7
:10693000284600F09FFF264800F09CFF254800F005
:1069400099FF254800F096FF244BC3F80090244B94
:106950001D60244A136801331360234A636411687D
:10696000E36A8B4288BF13601422534308EB030190
:106970004A689068A260E06090684660966058F847
:1069800003206161013248F8032000F05BFE174BE1
:106990001B6833B13B68DA6AE36A9A4201D200F0BD
:1069A00037FE012076E7114B1B68002BD1D13B68E5
:1069B000DA6AE36A9A4298BF3C60CAE77C03002027
:1069C000300200203C02002090030020A40300209D
:1069D000C8030020F4030020E0030020340200205C
:1069E00038020020880300208C030020DC030020F4
:1069F00037B50025124B8022019312492B461248CD
:106A00000095FFF71DFF0128044614D100F0E2FCB9
:106A1000012804460FD100F0D5FE4FF0FF320B4B9A
:106A20001A600B4B1C600B4B1D6000F077FE0A4B8D
:106A30001B6803B030BD0134F9D100F0C3FEFEE79E
:106A4000B8030020C8870508E9670508BC030020D3
:106A5000DC030020080400200C010020024A136817
:106A600001331360704700BF84030020014B186896
:106A7000704700BF080400202DE9F84F4D4B1B68FC
:106A8000002B40F090804C4B1C6801341C608CB98A
:106A90004A4B1A68126812B100F094FEFEE7484AA9
:106AA0001968106818601160464A13680133136052
:106AB000FFF788FEDFF810C10020DCF80030434A01
:106AC0009C42DFF80C810FD21421D8F80030DB6A29
:106AD0004B43D358022B3F4B28BF01201B68002B90
:106AE00018BF0120BDE8F88F8346DFF8EC90334BE8
:106AF0001B681B6823B94FF0FF33CCF80030E3E785
:106B00002E4B1B68DB68DB6859688C4202D2CCF8DC
:106B10000010D9E75D69D3E902178F607960696871
:106B20001E1DB142296808BF6F600139C3F814B057
:106B300029609D6A95B1D3E907178F60D3F820A02B
:106B400003F11807CAF804106968B942296808BF38
:106B5000C5F804A00139C3F828B02960D96AD9F86A
:106B60000050A9424FF0140505FB01FA02EB0A0799
:106B70007D6888BFC9F80010D5F808E09D60C3F8AB
:106B80000CE0D5F808E0CEF80460AE605F6152F822
:106B90000A30013342F80A30D8F80030DB6A9942F3
:106BA00088BF0120A3E70D4A00201368013313605A
:106BB00098E700BF8403002008040020340200206E
:106BC00038020020C0030020BC0300203C0200204B
:106BD000300200200C0400208C030020C40300209D
:106BE0002DE9F84F3E4C236813B900F0EBFDFEE7AA
:106BF00000F01AFD2368013B236023682BB10024B9
:106C000000F020FD2046BDE8F88F364A1268002AC1
:106C1000F5D04FF0140C4FF00109334D334E34488A
:106C2000DFF8D0E0DFF8D0803FE0EB68DB68996AFE
:106C3000D3E90724946062604A6803F11807BA42F6
:106C40004FF0000208BF4C609A620A68013A0A607D
:106C50005969D3E90224946062604A6803F1040A26
:106C600052450A6808BF4C60013A0A60DA6A316826
:106C70000CFB02F407198A42796888BF3260D1F8A8
:106C800008B09960C3F80CB0D1F808B0CBF804A0F4
:106C9000C1F808A001595F6101310151DEF800100F
:106CA000C96A8A4201D3C8F800902A68002ABCD178
:106CB0000BB1FFF787FD114D2C6844B101270E4E33
:106CC000FFF7DAFE00B13760013CF9D12C600A4BC6
:106CD0001B68002B93D000F09BFC012490E700BFC1
:106CE000840300207C030020C80300208C030020C4
:106CF0003C020020300200200C040020C4030020CD
:106D000008B518B9BDE8084000F082BC074B196807
:106D100011B100F057FDFEE7FFF7A0FEFFF70CFDF5
:106D2000FFF75EFF0028EDD008BD00BF8403002000
:106D3000154B70B51A68154B12B101221A6070BD5F
:106D40001426134D1A602A68124906FB02F3CC5828
:106D5000C81894B14468083364680B449C4208BF67
:106D60006368446008BF4360142303FB02114B684F
:106D7000D968094B19602A60E1E712B900F022FDD9
:106D8000FEE7013AE1E700BF840300200C04002085
:106D90008C0300203C0200203002002010B50C467D
:106DA00010B900F00FFDFEE7054B1968183100F02F
:106DB0006FFD2046BDE810400121FFF7BDBC00BFBC
:106DC0003002002070B50C46114610B900F0FAFCF4
:106DD000FEE7104B42681D689668EA611D6800294D
:106DE0002E621D68966805F1180575601D681B68A0
:106DF00005F1180595609862036803F101030360CB
:106E000008BF2046BDE8704018BF4FF0FF30FFF7C5
:106E100093BC00BF30020020F8B5C368DB6813B92B
:106E200000F0D0FCFEE79A6AD3E907018160486070
:106E3000506803F11804A04208BF51600021996214
:106E40001168013911601F4AD96A1268002A2BD1D2
:106E5000D3E902405A69A060D8681D1D4460546897
:106E6000AC4208BF50601068174C01381060174AD8
:106E70001068814288BF116014224A43A6187068C6
:106E800087689860DF6087687D6085605E61A35871
:106E90000133A3500E4B1B68DB6A994285BF01206A
:106EA0000C4B00201860F8BD0B4A50688568D8610B
:106EB0001D6285686C6084609A6213680133136098
:106EC000E8E700BF840300203C0200208C03002080
:106ED000300200200C040020C8030020034B1B6874
:106EE0000360034B1B684360704700BFC003002072
:106EF0000804002070B50D46044610B900F062FC8D
:106F0000FEE711B900F05EFCFEE700F08DFB0F4BD1
:106F100019682B685A1C17D00D48266800686268EB
:106F2000864208D08A4206D8002301242B6000F054
:106F300089FB204670BD881A8342F5D95B1A134439
:106F400020462B60FFF7CAFF0024F0E7080400206A
:106F5000C00300200122014B1A6070470C0400207E
:106F6000054B1B6833B1054B1B68002B0CBF02207F
:106F70000020704701207047DC03002084030020BC
:106F8000F8B5044600282FD01E4DC36A2A68D26A7D
:106F900093422ED282691C4E002AA1BF2A68D26A6F
:106FA000C2F110028261142202FB036342699A4219
:106FB0001BD1071D384600F082FC2B68134ADB6AA0
:106FC0001168E3628B4288BF136014225343F118A7
:106FD0004A689068A260E060906847609760F258E5
:106FE00061610132F2500120F8BD2B68DB6AC36297
:106FF000F9E72B68C06CDC6AA0422CBF002001209E
:10700000F2E700BF300200203C0200208C03002089
:1070100070B5044608B9002070BD194B1B68834247
:1070200002D000F0CFFBFEE71B6D13B900F0CAFBE6
:10703000FEE7C16AC26C013B91420365EBD0002BB5
:10704000E9D1051D284600F03AFCE36CC3F11002BB
:10705000A2610C4AE36211688B4288BF136014225C
:1070600053430949C81842689668A260E66096686A
:1070700075609560CA58606101320120CA50CBE743
:10708000300200208C0300203C02002070B5044632
:1070900000283BD0026D12B900F094FBFEE7C36CF0
:1070A000994238BF1946C36A8B422FD0012A2DD18D
:1070B000174A1268824202D100F084FBFEE782691F
:1070C000144D002A4FF0140202FB03534269C162BF
:1070D000A4BFC1F1100181619A4217D1061D30464B
:1070E00000F0EDFB0C4AE36A11688B4288BF136025
:1070F00014225343E9184A689068A260E0609068DF
:1071000046609660EA5861610132EA5070BD00BF86
:10711000300200203C0200208C030020044B1A683F
:107120001AB119680A6D01320A651868704700BF04
:1071300030020020F8B50F4C00F076FA2568ADB9A2
:107140000D4F0E4E384600F095FB304600F092FB96
:107150000B4B2A461F600B4B10210A201E6000F0CB
:1071600083FC206010B1084900F050FEBDE8F840F3
:1071700000F068BA44040020180400202C04002009
:107180001004002014040020CD870508914208B5A2
:10719000416000610AD8D21A83699A420DD2084B25
:1071A000011D186800F074FB002008BD9A4201D24E
:1071B000994202D2034B011DF3E70120F5E700BF1E
:1071C000140400201004002070B504460D46164635
:1071D000A1692B46324620462944FFF7D7FF00B964
:1071E00070BDA36920461D44236A9847F0E700005C
:1071F0000E4B70B51B680546DB680E46DC68201D2B
:1072000000F05DFB94F828305A0709D5324629462C
:107210002046FFF7D9FF2046236ABDE87040184793
:1072200023F0010384F82830F5E700BF10040020A4
:10723000F8B50546FFF71AFC0D4E04463368834245
:1072400013D90C4F3B681A6842B90B4A1168136096
:107250000123396020462B603460F8BDDB684FF0B5
:10726000FF311868FFF7C4FFECE70023F2E700BF27
:107270004004002010040020140400202DE9F041F7
:10728000514F86B03B681E68002E34D00024DB6866
:107290001E68FFF7E3FB02A8FFF7CAFF029B054643
:1072A000DFF82881002B3BD13CBBB0422BD3FFF74A
:1072B00097FC29463046FFF79BFF0022D8F80000D4
:1072C00002A900F091FC0028DCD0029B0498002B5E
:1072D00029DB049C63696BBB01A8FFF7A9FF029B34
:1072E0000546013B082BE8D8DFE803F028284B527D
:1072F0006528284B52000124CBE7354B1B681C68DE
:10730000B4FA84F464092246D8F80000711B00F036
:107310009FFDFFF765FC0028CFD100F079F9CCE79D
:10732000FFF75EFCC9E7039B05999847029B002B7A
:10733000C3DBCEE7201D00F0C2FACDE794F8283079
:10734000A16943F0010384F82830039B02461944E5
:107350002046FFF71BFF0028AFD094F828305907CC
:107360000AD5A36903992A4620461944FFF72CFF42
:107370002046236A9847A0E723F0010384F82830C9
:10738000F6E794F8283023F0010384F8283094E7D6
:1073900094F8283043F0010384F828300399A16160
:1073A00011B900F00FFAFEE70346024601442046F9
:1073B000FFF7ECFE81E794F828309A07E3D42046E3
:1073C00000F0D2F879E700BF100400204404002048
:1073D0001404002007B5FFF7ADFE0B4B1B6813B973
:1073E00000F0F0F9FEE7094B4FF48072019302239D
:1073F0000749009307480023FFF722FA0028EFD03F
:1074000003B05DF804FB00BF4404002048040020E2
:10741000D28705087D72050810B50F4B1A461B6808
:107420008342FBD354681119884201BF416810465A
:1074300009195160446801198B4207D1074909684D
:107440008B421FBF59681B68091941609042036055
:1074500018BF106010BD00BF602400204C04002045
:107460002DE9F0410446FFF7F9FA39490B68F3B901
:10747000384A394D50071DBFD01D20F0070002F5D6
:1074800000534FF400531CBF02461B1A0020134444
:10749000083B23F0070368602A60C3E90000981ADC
:1074A000C2E900300B602D4B18602D4B1860002C8A
:1074B00048D004F00703C3F11003DA43A24241D3DA
:1074C0001C44002C3EDDDFF89880D8F80070A742FD
:1074D00038D3214B1D686A68A24201D2286880B95E
:1074E0000968A9422ED01E682968121B102A06F1CD
:1074F000080619600CD92819410705D000F062F977
:10750000FEE72B460546E6E742606C60FFF784FF26
:1075100000236A681149BF1A42F000426A60114AAA
:1075200008682B601368874203F10103C8F80070F4
:1075300038BF0F601360FFF753FB730704D000F0F0
:1075400041F9FEE70026F6E73046BDE8F08100BFCE
:107550004C0400205004002060240020542400200B
:10756000502400205824002010B5044620B350F8C1
:10757000043C002B02DB00F025F9FEE750F8082C54
:1075800012B100F01FF9FEE723F0004340F8043C7D
:10759000FFF764FA094A54F8043C1168A4F10800A2
:1075A0000B441360FFF738FFBDE81040044A13682E
:1075B00001331360FFF714BB10BD00BF502400203F
:1075C0005C240020002307B50193074B1B6801339F
:1075D00002D000F0F7F8FEE700F0F4F8019B002B72
:1075E000FCD003B05DF804FB100100204FF0E02256
:1075F00000234FF47A7113619361044B1B68B3FB52
:10760000F1F3013B53610723136170470801002028
:107610004FF0E0234FF08052C3F8042DBFF34F8F9B
:10762000BFF36F8F7047000008B500F0CBF8044A35
:10763000136801331360BFF34F8FBFF36F8F08BD23
:107640001001002008B5084B1A6812B900F0BAF80A
:10765000FEE71A68013A1A60186818B9BDE80840D0
:1076600000F0BBB808BD00BF1001002010B500F04D
:10767000A9F80446FFF700FA28B14FF0E0234FF0D5
:107680008052C3F8042D2046BDE8104000F0A5B894
:1076900008B5836913F8023C022B03D1BDE808400A
:1076A00000F05EB800F08EF8FEE7000010B54FF075
:1076B000807440E90224184A4FF0123440F80C2C30
:1076C0004FF003324FF0023C40E905244FF0013205
:1076D00040F8203C40E9072C4FF010334FF01132B6
:1076E0004FF0093440E90A324FF008334FF0073CBD
:1076F00040E90C344FF006334FF0053240E90E3CC0
:107700004FF0043340E910326FF0430340F8443C3B
:1077100040F8481D10BD00BFC57505084FF0E023B7
:1077200010B50024D3F8202D42F47F02C3F8202D99
:10773000D3F8202D42F07F42C3F8202DFFF756FFEB
:10774000044B1C6000F02CF8FFF7F2FAFFF73AFF49
:10775000204610BD100100200000000000000000C5
:107760000B4A1168086806C881F30B88022181F36F
:107770001488203080F30988BFF36F8F4FF000002A
:1077800080F31188104700BFAFF30080AFF3008093
:107790003002002000000000000000000000000097
:1077A00007480068006880F3088862B661B6BFF3D6
:1077B0004F8FBFF36F8F02DF00BF00BFAFF30080BA
:1077C00008ED00E0EFF311804FF0A00181F3118884
:1077D000BFF34F8FBFF36F8F704780F31188BFF3F4
:1077E0004F8FBFF36F8F7047000000000000000054
:1077F000EFF30980EFF30B82734620E9FC0F104A88
:10780000116808604FF0A00080F31188BFF34F8F1C
:10781000BFF36F8FFFF78CFA4FF0000080F31188F1
:10782000074A11680868B0E8FC0F82F30B8880F300
:1078300009881847AFF30080AFF30080AFF30080F2
:1078400030020020000000000000000000000000E6
:107850001EF0040F0CBFEFF30880EFF3098004491A
:10786000084700BFAFF30080AFF30080AFF30080A4
:10787000917605084FF0FF3200F10803C0E90223BA
:107880004360036100230360704700230361704776
:1078900030B50C68631C0AD103695A684A6091606C
:1078A0008B605960036808610133036030BD00F1EB
:1078B0000802134652681568A542FAD9EDE7036934
:1078C000D0E901128A6051605968814208BF5A604C
:1078D000002202611A68013A1A601868704710B5F0
:1078E0000446FFF7A1FEA46BFFF7ACFEB4FA84F0E8
:1078F000400910BDF8B51546026C0446866B52B9B6
:10790000076847BB8068FFF783FB0546A760013621
:107910002846A663F8BD65B9406800F009FD6368B4
:10792000226C1344A26863609342F0D323686360BF
:10793000EDE7C06800F0FCFC226CE36851429B1A42
:107940002268E36093423EBFA3685B18E360022DA8
:1079500001D116B1013E0025D9E73546D7E70346E8
:107960001A6C084610B462B1DC68996814448C4201
:1079700028BF1968DC6028BFD960D96810BC00F046
:10798000D7BC10BC704770B50446FFF74DFE94F8A5
:10799000455004F124066DB2002D14DCFF2384F859
:1079A0004530FFF74FFEFFF73FFE94F8445004F1D7
:1079B00010066DB2002D12DCFF2384F84430BDE8C0
:1079C0007040FFF73FBE636A002BE7D03046FFF7F9
:1079D00023FA08B1FFF7BEFA013D6DB2DCE7236977
:1079E000002BE9D03046FFF717FA08B1FFF7B2FADB
:1079F000013D6DB2DEE770B50E46044610B9FFF7E3
:107A0000E1FEFEE7C56B65B3036CA3FB053545BB23
:107A1000FFF70AFED4E90F314B432268A563D01863
:107A20005B1A1344E360FF23A06084F84430626073
:107A300084F8453066B9236933B104F11000FFF7CB
:107A4000EBF908B1FFF7E4FDFFF7FCFD012070BD85
:107A500004F11000FFF70EFF04F12400FFF70AFF06
:107A6000F2E7FFF7AFFEFEE7F8B50D46174606460C
:107A7000D8B1A0FB0123C3B9484310F1510F14D86A
:107A80005030FFF7EDFC044658B165B100F15003EA
:107A900001212046C4E90F652360FFF7ACFF84F89D
:107AA0004C702046F8BD0346F2E7FFF78BFEFEE779
:107AB0002DE9F04385B088461F460446019210B96F
:107AC000FFF780FEFEE721B9036C13B1FFF77AFEE2
:107AD000FEE7022F05D1E36B012B02D0FFF772FE08
:107AE000FEE7FFF73DFA064620B9019B1BB1FFF701
:107AF00069FEFEE700264FF0000941E0019D1DB937
:107B0000FFF7A0FD002054E016B902A8FFF7E6F940
:107B1000FFF798FDFEF7A2FFFFF786FD94F84430CB
:107B2000FF2B08BF84F8449094F84530FF2B08BF22
:107B300084F84590FFF786FD01A902A8FFF7DAF95E
:107B4000002839D1FFF770FDA26BE36B9A420FD189
:107B5000FFF778FD019904F11000FFF71FF92046A7
:107B6000FFF711FFFFF73CF848B9FFF751FD06E0BA
:107B7000FFF768FD2046FFF706FFFFF731F8012603
:107B8000FFF752FDA26BE36B9A4201D3022FB5D1EE
:107B90003A4641462046FFF7ADFE636A1BB104F149
:107BA0002400FFF739F908B1FFF732FDFFF74AFD6E
:107BB000012005B0BDE8F0832046FFF7E4FEFFF7A3
:107BC0000FF89FE7024610B500210120FFF74CFF98
:107BD000044638B100231A46194683600360C36027
:107BE000FFF766FF204610BD2DE9FF410F46044612
:107BF000019210B9FFF7E6FDFEE721B9036C13B15E
:107C0000FFF7E0FDFEE7FFF7ABF9064620B9019B61
:107C10001BB1FFF7D7FDFEE700264FF0000834E068
:107C2000019D1DB9FFF70EFD002045E016B902A821
:107C3000FFF754F9FFF706FDFEF710FFFFF7F4FC1E
:107C400094F84430FF2B08BF84F8448094F8453002
:107C5000FF2B08BF84F84580FFF7F4FC01A902A8B8
:107C6000FFF748F988BB2046FFF739FE38B3019982
:107C700004F12400FFF792F82046FFF784FEFEF798
:107C8000AFFF08B9FFF7C4FC0126FFF7CDFCA56BD9
:107C9000002DC5D039462046013DFFF760FEA563A3
:107CA000236933B104F11000FFF7B6F808B1FFF70C
:107CB000AFFCFFF7C7FC012004B0BDE8F08120460F
:107CC000FFF761FEFEF78CFFDEE72046FFF75BFE65
:107CD000FEF786FF2046FFF702FE0028D4D0A3E778
:107CE0002DE9FF410446019110B9FFF76BFDFEE756
:107CF000056C15B1FFF766FDFEE7FFF731F90646A3
:107D000020B9019B33B1FFF75DFDFEE72E464FF032
:107D1000000841E00546FAE7019F1FB9FFF792FC12
:107D2000002551E016B902A8FFF7D8F8FFF78AFC42
:107D3000FEF794FEFFF778FC94F84430FF2B08BF61
:107D400084F8448094F84530FF2B08BF84F84580C0
:107D5000FFF778FC01A902A8FFF7CCF800283DD175
:107D60002046FFF7BCFD98B323683BB9FFF75CFCE6
:107D7000A068FFF705F90546FFF764FC019904F1D7
:107D80002400FFF70BF82046FFF7FDFDFEF728FF64
:107D900008B9FFF73DFC0126FFF746FCA36B002B5B
:107DA000BAD0013BA363236813B9FFF7B7F9A0600A
:107DB000236933B104F11000FFF72EF808B1FFF783
:107DC00027FCFFF73FFC0125284604B0BDE8F08101
:107DD0002046FFF7D8FDFEF703FFDCE72046FFF75C
:107DE000D2FDFEF7FDFE2046FFF779FD0028D2D038
:107DF000002DE9D0FFF718FC616A19B1236B1968EF
:107E0000C1F11001A068FFF741F987E770B510B91B
:107E1000FFF7D8FCFEE7B9B100230C4A1C46154613
:107E20005668864204D105EBC403C3E900100BE099
:107E30001BB91668002E08BF13460134082C02F146
:107E40000802EDD1002BF0D170BD00BF68240020E6
:107E500070B504460D461646FFF7E6FB94F844302D
:107E6000FF2B04BF002384F8443094F84530FF2BE7
:107E700004BF002384F84530FFF7E4FBA36B2BB964
:107E80003246294604F12400FEF79CFF2046BDE857
:107E90007040FFF778BD000070B4DDE9035401F5D0
:107EA0000046B6F5803F0DD2FF2B0BD8FF2C09D82A
:107EB00044EA0324134644EA0142014670BC0348E5
:107EC00000F022B86FF0800070BC70472102000CF7
:107ED000002307B50A4600930146034800F014F852
:107EE00003B05DF804FB00BF1902000C002307B5C6
:107EF00001461A460093034800F006F803B05DF807
:107F000004FB00BF1102000C2DE9F04104460D46B0
:107F100016461F46DFF834804FF0FF31D8F80000D6
:107F2000FFF7DEFE0128F7D13A4631462846069B88
:107F3000A04704460023D8F800001A461946FFF768
:107F4000B7FD0128F6D12046BDE8F081A824002025
:107F500008B50120FFF736FE18B1034B186000206A
:107F600008BD4FF0FF30FBE7A824002053B94AB901
:107F7000002908BF00281CBF4FF0FF314FF0FF3031
:107F800000F080B9ADF1080C6DE904CE00F006F800
:107F9000DDF804E0DDE9022304B070472DE9F04F7D
:107FA000099E0D4604460F46002B47D18A4294464F
:107FB0005FD9B2FA82F343B1C3F120019F4002FAC4
:107FC00003FC9C4020FA01F10F434FEA1C451FFAC5
:107FD0008CFE220CB7FBF5F105FB117701FB0EF0CF
:107FE00042EA0742904208D91CEB020201F1FF3736
:107FF00002D2904200F234813946121AA4B2B2FB86
:10800000F5F005FB102200FB0EFE44EA0244A645F3
:1080100008D91CEB040400F1FF3202D2A64500F29D
:108020001981104640EA0140A4EB0E0400211EB164
:10803000DC400023C6E90043BDE8F08F8B4208D93D
:10804000002E00F0FB800021C6E900050846BDE8CF
:10805000F08FB3FA83F100294BD1AB42C0F0F1802D
:10806000824240F2EE800846002EE5D0C6E9004785
:10807000E2E702B9FFDEB2FA82F3002B40F09D8006
:108080008D1A4FEA124E97B20121B5FBFEF20EFB9C
:108090001250250C45EA004507FB02F0A8420FD913
:1080A0001CEB050502F1FF382CBF4FF001094FF022
:1080B0000009A84203D9B9F1000F00F0CE80424672
:1080C0002D1AA4B2B5FBFEF00EFB105500FB07F70E
:1080D00044EA0544A74208D91CEB040400F1FF352B
:1080E00002D2A74200F2B3802846E41B40EA0240D5
:1080F0009DE7C1F120078B4005FA01F422FA07FC45
:10810000FD408A404CEA030C20FA07F34FEA1C4971
:108110001C431FFA8CFE00FA01F3200CB5FBF9F8A2
:1081200009FB185540EA054508FB0EF0A8420FD997
:108130001CEB050508F1FF3A2CBF4FF0010B4FF087
:10814000000BA84203D9BBF1000F00F08C80D04691
:108150002D1AA4B2B5FBF9F009FB105500FB0EFE79
:1081600044EA0545AE4507D91CEB050500F1FF348F
:1081700001D2AE457ED8204640EA0840A5EB0E0568
:10818000A0FB029845454C46C64602D306D14B4556
:1081900004D20138B9EB020468EB0C0E002E6FD04C
:1081A0001A1B65EB0E0522FA01F305FA07F7CD401D
:1081B00000211F43C6E900753EE702FA03FCC3F144
:1081C000200001FA03F24FEA1C4EC14024FA00F5E8
:1081D0001FFA8CF79C401543B1FBFEF02A0C0EFBF6
:1081E000101142EA014200FB07F191420ED91CEB4B
:1081F000020200F1FF382CBF4FF001094FF00009D7
:10820000914202D9B9F1000F31D04046521AADB2B5
:10821000B2FBFEF10EFB112245EA024501FB07F21B
:10822000AA4207D91CEB050501F1FF3801D2AA4289
:1082300023D84146AD1A41EA004126E7314630468F
:10824000FAE6841A65EB030301201F460CE7644439
:1082500002384AE764440238E4E6023A65442FE70C
:1082600002396244C9E6A8F10208654470E70238A1
:108270006244CBE7023865447EE702396544D9E7BA
:108280003146D9E6704700BF002301461A4618461A
:1082900000F044B908B5074B044613B1002100F0C3
:1082A00093F9054B1868836A03B19847204600F09C
:1082B000E9F900BFC9850508DC87050838B5084B12
:1082C000084D5B1B9C1007D0043B1D44013C55F836
:1082D00004399847002CF9D1BDE8384000F0DAB9EC
:1082E000800100207C01002070B50D4E0D4D761BE5
:1082F000B61006D00024013455F8043B9847A64236
:10830000F9D1094E00F0C0F9084D761BB61006D021
:108310000024013455F8043B9847A642F9D170BDBA
:1083200078010020780100207C01002078010020E5
:10833000844641EA000313F0030349D1403A23D3B2
:108340000B6803604B6843608B688360CB68C360D5
:108350000B6903614B6943618B698361CB69C361BD
:108360000B6A03624B6A43628B6A8362CB6AC362A5
:108370000B6B03634B6B43638B6B8363CB6BC3638D
:1083800040304031403ADBD230320BD30B680360CF
:108390004B6843608B688360CB68C36010301031DA
:1083A000103AF3D20C3205D351F8043B40F8043BA9
:1083B000043AF9D2043208D0D2071CBF11F8013BAD
:1083C00000F8013B01D30B8803806046704700BF73
:1083D000082A13D38B07B1D010F00303AED0C3F13A
:1083E0000403D21ADB071CBF11F8013B00F8013B64
:1083F000A4D331F8023B20F8023B9FE7043AD9D3DB
:10840000013A11F8013B00F8013BF9D20B780370F7
:108410004B7843708B7883706046704770B58607E1
:1084200048D0541E002A3FD0CAB2034601E0013CA6
:108430003AD303F8012B9D07F9D1032C2DD9CDB2E6
:108440000F2C45EA052545EA054536D9A4F1100C5F
:1084500003F1200E03F110022CF00F064FEA1C1C52
:10846000B64442E9045542E9025510327245F8D14A
:108470000CF1010214F00C0F04F00F0C03EB0212CC
:1084800013D0ACF1040323F003030433134442F884
:10849000045B9342FBD10CF003042CB1CAB21C4420
:1084A00003F8012B9C42FBD170BD64461346002C9F
:1084B000F4D1F9E703461446BFE71A46A446E0E7BD
:1084C00020F0030110F00300C0F1000051F8043B5C
:1084D00000F1040C4FEACC0C6FF000021CBF22FA32
:1084E0000CF213434FF0010C4CEA0C2C4CEA0C4CF0
:1084F000A3EB0C0222EA030212EACC1204BF51F8E9
:10850000043B0430F4D0C2F1000102EA0102B2FAE5
:1085100082F2C2F11F0200EBD2007047F0B5264C88
:1085200083B006460F46256805B36C681F2C3FDCF8
:10853000A6B1D5F8880048B3D0F800114FF0010C6F
:1085400040F82420022E00EB84020CFA04FC4CEAD2
:108550000101C0F80011C2F8803010D0631C002067
:1085600002346B6045F8247003B0F0BD134D14491C
:1085700025600029D9D00968C5F88810D5E7D0F85A
:10858000043143EA0C03C0F80431E7E70D49CDE9B3
:10859000002369B14FF48470AFF3008040B1002133
:1085A0006C68C0E94011DDE90023C5F88800C5E723
:1085B0004FF0FF30D8E700BF38250020AC24002062
:1085C00000000000000000002DE9F04FDFF8B0A02F
:1085D00083B0DAF800700190C7B189467D68D7F89A
:1085E00088806C1E12D407EB850608EB85050436DF
:1085F000B9F1000F0DD0B8F1000F02D0EB6F4B4571
:1086000007D0013C043D043E631CF1D103B0BDE83A
:10861000F08F7B683268013BA3422BD0002333608C
:10862000002AEED0D7F804B0B8F1000F19D001231A
:10863000D8F8000103FA04F1014212D0D8F804017D
:10864000014219D155F8041C019890477A685A459F
:108650000BD1DAF80030BB42D3D01F46002FBDD17A
:10866000D4E790477A685A45F3D0DAF80070002FC3
:10867000B4D1CBE77C60D3E755F8040C9047E5E72D
:1086800038250020FEE700BFF8B500BFF8BC08BCE5
:108690009E467047F8B500BFF8BC08BC9E467047C0
:1086A00068656C6C6F20776F726C640074657374AE
:1086B000546872656164004E6F6E2D536563757208
:1086C000652073797374656D207374617274696E5B
:1086D000672E2E2E0D0A003078005B556E73757074
:1086E000706F72746564205461675D00303132339D
:1086F0003435363738396162636465663031323318
:10870000343536373839414243444546000000008D
:108710000000000001020304060708090000000031
:1087200001020304A0860100400D0300801A060028
:1087300000350C0040420F0080841E0000093D00FF
:1087400000127A000024F40000366E010048E801AF
:10875000006CDC02000000000000000000000000CF
:108760000000000003020202795805089958050824
:10877000155905089D580508A1580508F158050820
:10878000D1580508A5580508AB580508C55905086E
:10879000AF580508B3580508BF580508C55805085F
:1087A000040208001010100410101002101010081D
:1087B000010002000400060008000A000C0010007E
:1087C000200040008000000149444C4500546D7277
:1087D0005100546D72205376630000001801002090
:0487E0000000000095
:1087E40030B585B0CDE902010121E020FFF76EFB31
:1087F400041E0BDD00210123CDE9001102AAFFF7BD
:1088040049FB05462046FFF76FFB2C46204605B082
:0288140030BD75
:0888180068CAFF7F01000000A7
:10882000488805080001002020000000000000002A
:08883000000000000000000040
:1088380080010020EF080000000000000000000098
:10884800010000000800000000093D000F000000C2
:10885800AAAAAAAA1801002000000000000000002F
:108868000000000000000000000000000000000000
:1088780000000000000000000000000000000000F0
:1088880000000000000000000000000000000000E0
:1088980000000000000000000000000000000000D0
:1088A80000000000000000000000000000000000C0
:1088B8000000000000000000615205083952050858
:04000005080554ADE9
:00000001FF
