:020000040C00EE
:10000000F80B02302928000C0D37000C4927000C92
:10001000396D000C436D000C576D000C4D6D000CDC
:10002000000000000000000000000000AD52000CC5
:100030004B27000C000000005952000C4D27000C0B
:100040004F27000C5127000C5327000C5527000C9C
:100050005727000C5927000C5B27000C5D27000C6C
:100060005F27000C6127000C6327000C6527000C3C
:100070006727000C6927000C6B27000C6D27000C0C
:100080006F27000C7127000C7327000C7527000CDC
:100090007727000C7927000C7B27000C7D27000CAC
:1000A0007F27000C8127000C8327000C8527000C7C
:1000B0008727000C8927000C8B27000C8D27000C4C
:1000C0008F27000C9127000C9327000C9527000C1C
:1000D0009727000C9927000C9B27000C9D27000CEC
:1000E0009F27000CA127000CA327000CA527000CBC
:1000F000A727000CA927000CAB27000CAD27000C8C
:10010000AF27000CB127000CB327000CB527000C5B
:10011000B727000CB927000CBB27000CBD27000C2B
:10012000BF27000CC127000CC327000CC527000CFB
:10013000C727000CC927000CCB27000CCD27000CCB
:10014000CF27000CD127000CD327000CD527000C9B
:10015000D727000CD927000CDB27000CDD27000C6B
:10016000DF27000CE127000CE327000CE527000C3B
:10017000E727000C00000000E927000C0000000049
:10018000EB27000CED27000CEF27000CF127000CEB
:10019000F327000CF527000CF727000CF927000CBB
:1001A000FB27000CFD27000CFF27000C0128000C8A
:1001B0000328000C0528000C0728000C0928000C57
:1001C0000B28000C0D28000C0F28000C1128000C27
:1001D0001328000C1528000C1728000C1928000CF7
:1001E0001B28000C1D28000C1F28000C2128000CC7
:0401F0002328000CB4
:100200007FE97FE906F09CBC7FE97FE906F0A7BCA7
:100210007FE97FE906F0D2BC7FE97FE906F0BFBC49
:100220007FE97FE906F0AABC0000000000000000A2
:1002300000000000000000000000000000000000BE
:10024000F4BF010CE08F023037000000206B000C7F
:10025000800E023007000000C06A000C200C023043
:040260001500000085
:10026400C0900230590E0000A00E02305020000051
:10027400780C023082000000000C023008000000FC
:1002840000015F5F00000000FE0F0000B153000C8E
:100294000004000000000000000000000000000056
:1002A4000000000000000000A092023000000000E6
:1002B40001015F5F01000000FF030000E153000C37
:1002C4000001000000000000000000000000000029
:1002D4000000000000000000A096023000000000B2
:1002E40001015F5F030100001F0100003104000CE5
:1002F400001B0000000000000100000001000000DD
:100304000000000000000000C04A023000000000AD
:100314007000000070A2010C80000000000F0000BB
:1003240001000000FD04000C0100000001015F5FFA
:10033400010100001F010000EB12000C2007000067
:1003440000000000000000000100000000000000A8
:1003540000000000F8870230000000007BA2010CBE
:1003640070000000020F000001000000F112000CF8
:100374000100000000015F5F220100001F02000075
:10038400C125000C00020000000000000100000074
:10039400010000000100000001000000780C0230A0
:1003A4000000000080000000A0A2010CE00000009A
:1003B4000005000001000000000000001000000023
:1003C40000000000000000000A0000000D31000CD5
:1003D4000000000022010000000000000000008076
:1004000038B50025054C29462046D4F8002AC4F802
:10041000045A06F02DFDC4F8005A38BDA00E023073
:10042000024BD3F8043A036000207047A00E02305C
:1004300008B500F017F968B900F0DEFE00F0EAFE3A
:1004400040B919F089FA18B9BDE808400AF0C0BCF3
:100450006FF0920008BD000013B511460022CDE9EF
:10046000002242680346302A04683ED194F82C20CA
:10047000022A15D0B2B320482468D0F8040A013A01
:10048000CDE90040072A33D8DFE802F0040A0E1352
:10049000181D22276A46184600F0C3FD02B010BDA1
:1004A000184600F02AFAF9E76A46184600F0C1FA41
:1004B000F4E76A46184600F06DF9EFE76A46184619
:1004C00000F05DFBEAE76A46184600F04CFCE5E701
:1004D0006A46184600F0A1FCE0E76A46184600F0BC
:1004E000DCFCDBE700F080FED8E76FF08000D5E7AA
:1004F0006FF08500D2E700BFA00E02302DE9F04F6B
:10050000056804469DB0002D40F0A78029462022B2
:10051000684606F0ADFC202229460DEB020006F0ED
:10052000A7FC2946042510AF3022384606F0A0FC6F
:1005300004F11C0353F804192A46013D09B115467C
:1005400001E0002DF6D1042604F12C0353F8041920
:100550003246013E09B1164601E0002EF6D12DB912
:100560006FF0830528461DB0BDE8F08F30233A4672
:100570000021606806F0CEFC3028F1D1E9464FF04A
:100580000108CDE90070364F04F1140AA845D7F8E8
:10059000000A1BD10DF1200842464FF0000C04F177
:1005A000200303EB860999452FD1BCF1000F01D040
:1005B000C7F8000AA3682946C7F8043A68463346D4
:1005C00008AAFFF749FF002705463FE05AF8043B19
:1005D000C0F52061DA1C22F003028A4204D9FFF739
:1005E0000FFF6FF08C05BDE707EB000B024441469F
:1005F000C7F8002A60685A4606F08CFC08F101082A
:10060000C9F80C0049F808BFC0E753F804EBC0F57F
:10061000206A0EF1030121F00301514502F10802A5
:1006200007D807EB000C42E902CE08444FF0010C5A
:10063000B9E7BCF1000FD2D0C7F8000ACFE73946BE
:1006400058E90223606806F06FFC0137B74208F1F1
:100650000808F4D1FFF7D4FE84E76FF0850581E741
:10066000A00E023008B54FF48C520021024806F06B
:10067000FFFB002008BD00BFA81802300023F7B51B
:100680000C6807460E461546019314BB22B314604E
:1006900001A8FFF7C5FEA8B94FF40C7C104A0CFB6B
:1006A00004F39958A646013471B94FF0010E02EBDC
:1006B000030C42F803E0019910331344CCE901170D
:1006C00034602B6003B0F0BD082CE8D16FF08400DB
:1006D000F8E76FF08800F5E76FF08600F2E700BFFB
:1006E000A81802300023F7B505680193013D072DD6
:1006F000036004D96FF08604204603B0F0BD01A862
:10070000FFF78EFE04460028F6D14FF40C735D43CC
:100710000A4E73597719012BECD17A68019B9A42E2
:10072000E8D105F110004FF408722146304406F07C
:100730009FFBC7E901447451DEE700BFA8180230EF
:10074000002373B54C1E072C06461546019303D9AA
:100750006FF0880002B070BDBAB101A8FFF760FE6B
:100760000028F7D14FF40C716143094B5C585A18BB
:10077000012CEDD19468B442EAD15468019A9442B4
:10078000E6D1103119442960E4E76FF08600E1E713
:10079000A8180230134600222DE9F047D0F8009047
:1007A00086B0B9F82C600DF1100A039207460D4689
:1007B000D3E90021504600F01BFD26F48073042B82
:1007C0009AB200F09780B2F5017FD9F808100FD1E6
:1007D000D5F800800120C8F8001003AA4146FFF7B1
:1007E0004DFF0446002877D0204606B0BDE8F087CC
:1007F000012003AAFFF7A4FF40F204739E420446BF
:1008000003D040F604039E425FD1D5F80080D9F8AA
:100810000830C8F80030002C5AD040F604039E423D
:10082000E2D10024E0E740F204739E423BD040F660
:1008300004039E4244D040F204639E425AD1D7E959
:1008400002122B1D01936B68039800932B6809F02B
:1008500039F905E003982B1DD5E900120AF0E4F8F8
:1008600004460028C0D000236B60BDE70398D7E999
:10087000021209F009F90446B6E7D9F804300398E2
:100880009AE8060009F0E8F804460028C9D0404676
:10089000FFF728FFA8E7D9F8043003989AE8060084
:1008A00009F0E6F8F0E7039805F10C03D5E9021228
:1008B00009F022F904460028E9D00023EB6093E711
:1008C000039809F027F80446E1E700288CD1804618
:1008D00040F204539E42C9D040F204539E42A2D833
:1008E000B6F5417FD7D040F204439E42B2D0B6F570
:1008F000017FC2D06FF0850476E700232DE9F7432E
:1009000005680093B5F82C90074629F48073022BF4
:100910000E4600F08B8040F202239945A96811D160
:10092000D6F800806A46C8F8001003204146FFF759
:10093000A5FE044608BB6968009808F013FB04464E
:10094000D0B13CE06A460320FFF7FAFE40F20252C3
:1009500029F400739342044603D040F202639945A0
:1009600054D1D6F80080AB68C8F80030002C50D0C5
:1009700040F20273994500D10024204603B0BDE83F
:10098000F08340F2026399451ED040F2027399450C
:100990004CD1009808F0DBFA044610E00098D7E943
:1009A000021208F083FB0446E7E7009806F10C0307
:1009B000D6E9021208F08EFB044610B90024404626
:1009C00021E00023F360D8E70098D7E9021208F08D
:1009D00092FB04460028D0D1F0E700230193BB68C6
:1009E00035681B68294603202B6001AAFFF746FEE5
:1009F00004460028C1D1DDE9000108F0BBFB044634
:100A00000028BAD02846FFF76DFEB6E70028B4D11B
:100A1000804640F202539945C7D0B2D840F2023323
:100A20009945BBD040F202439945D6D06FF085047A
:100A3000A3E72DE9FF4713460022D0F800900DF1FF
:100A4000080AB9F82C50019207460E46D3E9002156
:100A5000504600F0CDFB25F48073032B9AB200F0D2
:100A60008B8040F203239A42D9F808100FD1D6F8B0
:100A700000800220C8F8001001AA4146FFF7FEFDE1
:100A80000446002868D0204604B0BDE8F08701AADB
:100A90000220FFF755FE40F2035225F40073934203
:100AA000044603D040F203639D424ED1D6F8008045
:100AB000D9F80830C8F80030002C49D040F2037350
:100AC0009D42E0D10024DEE740F203639D4233D033
:100AD00040F203739D424FD1019808F05DFB04463C
:100AE00009E0D9F8043001989AE8060008F0B8FB4C
:100AF00004460028E6D04046FFF7F4FDC3E7D9F8E6
:100B0000043001989AE8060008F0B6FBF0E7019877
:100B1000D7E9021208F0BCFB0446B4E7019806F1DD
:100B20000C03D6E9021208F0C5FB044608B90024FC
:100B3000E1E70023F360A6E70198D7E9021208F085
:100B400095FC044600289ED1F1E700289BD1804601
:100B500040F203539D42E1D040F203539D42B3D88B
:100B600040F203339D42CAD040F203439D42CED0AF
:100B700040F203239D42B4D06FF0850483E713460F
:100B800000222DE9F047D0F8008088B0B8F82C603A
:100B90000DF1180A059207460D46D3E9002150468B
:100BA00000F026FB26F48073052B9AB200F0D88063
:100BB00040F205239A42D8F8081010D1D5F80090D9
:100BC0000520C9F8001005AA4946FFF757FD04465D
:100BD000002800F0B280204608B0BDE8F08705AAE2
:100BE0000520FFF7ADFD40F6051226F40073934291
:100BF000044604D040F605239E4240F09680D5F886
:100C00000090D8F80830C9F80030002C00F091802E
:100C100040F605339E42DED10024DCE740F2055366
:100C20009E4259D040F205639E4240F09980D8E937
:100C30000412059809F05EF853E040F605239E4241
:100C400062D01AD840F605039E424CD040F60513F8
:100C50009E4240F08580D5E9041205F10C03029311
:100C6000EB6805980193AB68009305F1140309F054
:100C7000C9F8044600BB002412E040F605339E424A
:100C80006ED1059808F054FF044609E0D8F8043006
:100C900005989AE8060008F0F3FF04460028BBD048
:100CA0004846FFF71FFD96E7D8F8043005989AE804
:100CB000060008F0F1FFF0E70023EB606B618AE7C4
:100CC00005982B1DD5E9001209F0E8FE044600281E
:100CD00081D000236B607EE70598D7E9021208F007
:100CE000E7FF044677E72B1D01936B680598009397
:100CF000D7E902122B6809F053F8E7E70598D7E91E
:100D0000021209F023F8ECE7FB6805980193BB6831
:100D1000D5E90212009305F10C0309F0A5F8044689
:100D20000028A8D00023EB6055E700287FF453AFDC
:100D3000814640F205739E42E0D040F205739E4228
:100D40003FF67BAF40F205439E42B9D03FF666AF17
:100D500040F205239E4299D040F205339E42A3D033
:100D60006FF0850437E7F0B587B004AE0768044636
:100D70000D46D2E90021304600F03AFA40F2062250
:100D8000BB8D93423AD008D8062B17D0B3F5837F9A
:100D900027D06FF0850007B0F0BD40F206329342D5
:100DA000F7D16369029323690193E36800937A683A
:100DB000A36896E8030008F0E5FCECE72B1D03931D
:100DC0006B6802932B680193E36800937A68A368C9
:100DD00096E8030008F0B0FB0028DCD000236B602D
:100DE000D9E76369029323690193E36800937A6802
:100DF000A36896E8030008F0FFFBCCE72B1D0393E4
:100E00006B6802932B680193E36800937A68A36888
:100E100096E8030008F054FCDEE7F0B589B00768F7
:100E200006AE04460D46D2E90021304600F0E0F956
:100E3000BB8D072B07D040F2071293421AD06FF0F8
:100E4000850009B0F0BD2B1D05936B6804932B68DA
:100E500003936369029323690193E36800937A68BB
:100E6000A36896E8030008F0A1FC0028E9D000235D
:100E70006B60E6E72B1D05936B6804932B68039367
:100E80006369029323690193E36800937A68A36816
:100E900096E8030008F0E6FCE7E700232DE9F047B9
:100EA000D0F8009092B0B9F82C6006AF80460D469D
:100EB0009246D2E900213846059300F099F9082EB0
:100EC00012D12B1D03936B6802932B680193D8F802
:100ED0000C300093D9F80400D8F8083097E80600E1
:100EE00009F037FE044621E0B6F5847FD9F80810F2
:100EF00012D12D680420296005AA2946FFF7BEFB00
:100F0000044698B9D9F80410059809F0A1FC0446E4
:100F100000284FD1002409E0042005AAFFF710FCA7
:100F2000044638B140F608139E4239D0204612B02C
:100F3000BDE8F087B6F5A16F51D014D8B6F5427F61
:100F400041D005D8B6F5027F38D06FF08504EDE7C3
:100F5000B6F5816FF9D1D8E90223B9F82E100598BA
:100F600009F0A4FCBEE7B6F5E16F32D010D8B6F5B3
:100F7000C16FEAD1D8F80C30B9F82E100193D8F827
:100F800008300598009397E80C0009F0D9FCA9E710
:100F900040F608039E422AD040F608139E42D4D160
:100FA0002D68D9F808302B60002CB3D1059808F0D3
:100FB0007FFF04462846FFF795FBB7E729680598A9
:100FC00009F05EF98EE7D9F80C10059809F061F97F
:100FD00088E70598D5E9001209F06AF982E7B9F8BF
:100FE0002E10059897E80C0009F069FC7AE7D8F80C
:100FF00008600146282208A82D6805F039FF304610
:10100000DAF8041008AA00F00FF9044600288DD180
:101010003A46059908A809F0AFFA069B04462B60EA
:1010200084E72DE9F047576890B002AED0F8008011
:10103000126804460D463046394600F0D9F840F2B1
:101040000152B8F82C30934272D031D840F20122CC
:10105000934261D00AD8012B6FD040F20112934223
:101060007DD06FF0850010B0BDE8F08740F201320E
:10107000934258D040F201429342F2D1D4E904891C
:10108000D4F808A02822002106A82C6805F0F0FE5C
:101090003946504606AA00F0C7F80028E3D1334687
:1010A0004A46414606A807F03FFE029B2360DAE766
:1010B00040F60102934272D010D840F2016293428E
:1010C0005FD040F201729342CBD12B1D0093D5E942
:1010D000002396E8030007F0ECFD5AE040F6011209
:1010E000934261D040F601229342BAD128220021D6
:1010F00006A805F0BDFE3946A06806AA2D6800F0D6
:1011000093F80028AFD1314606A809F098FD0028D1
:10111000A9D1029B2B60A6E73246D6E900012C68D4
:101120000BF00BFDC1E796E803000BF024FD9AE7F6
:1011300096E8030007F070FC95E72822002106A836
:1011400005F096FE96E8030006AA2C6807F08FFCCF
:10115000002888D1214606A800F091F883E72822CC
:10116000002106A805F084FE2C683946204606AA10
:1011700000F05AF800287FF476AF06A809F07AFE4E
:10118000E8E72B1D0093D5E9002396E8030007F05C
:101190001DFD00283FF467AF00236B6063E796E80E
:1011A00003000BF005FD5EE72822002106A805F0EC
:1011B0005FFE0022D4F80880114604A82C6800F0D5
:1011C00017F83946404606AA00F02EF800287FF4AA
:1011D0004AAF96E8030004AB06AA07F014FE002805
:1011E0007FF441AF049B61E7D1E9000109F0F8BB4E
:1011F000C0E900217047000010B5044C0F222046C2
:10120000034905F0EBFE204610BD00BFA84A02309E
:101210009025000C08B54FF40251024806F01AF967
:10122000002008BD282A02302DE9F04188461646E4
:1012300007468AB000B3FAB135466C462822002131
:10124000684605F015FE0FCC0FC50FCC0FC594E80E
:10125000030085E8030000203B8833807B687360CF
:10126000FB6833613B6973617B887380BB68C6E947
:1012700002380AB0BDE8F0816FF08000F9E730B5C0
:1012800061B158B1D0E901230468D0E90405C1E98E
:1012900003050020C1E900428B6030BD6FF0800083
:1012A000FBE7F0B585B06C4684E80300002403A892
:1012B00016461F46039405F095FF2146009A039DAC
:1012C000814202D16FF08B000BE02B4655F8184B92
:1012D000944208D100201A693260D3E90223C7E999
:1012E000002305B0F0BD0131EAE700F0C9B8000005
:1012F0006FF47A72F0B50368044613448DB0032B83
:101300007CD8DFE803F002284C6B0369082B02D07D
:101310006FF080055FE08569042DF9D100214068F8
:1013200008AA05F0F7FD0828F2D12B4602216068D3
:1013300006AA05F0EFFD0428EAD1324A6168636924
:101340001160069AA068CDE90032DDE9082300F0BB
:10135000D9F805463FE00369082BD9D14569042D2A
:10136000D6D10021406808AA05F0D4FD0828CFD1C5
:101370002B460121606806AA05F0CCFD0428C7D1E0
:101380006168204A236A116005AACDE90132069BF3
:10139000A0680093DDE9082300F000F9D9E70369AC
:1013A000082BB5D1076A0C2FB2D10021406806AADC
:1013B00005F0B0FD0828ABD1DDE9062308AEA06832
:1013C000009600F035F9054628B901463B463246FD
:1013D000606805F0A9FD28460DB0F0BD0369082B33
:1013E00096D10021406808AA05F094FD08288FD105
:1013F000DDE90823A06800F02DF9AAE76FF0850564
:10140000E9E700BFC0650230024603480B460068AA
:10141000012105F07FBD00BFC065023002460348D0
:101420000B460068002105F07FBD00BFC06502309B
:101430001FB550EA010316D0CDE901200422039123
:101440000B480DEB020105F0C9FD082209480DEB20
:10145000020105F0C3FD084A0549084805B05DF8DA
:1014600004EB00F006BA6FF0860005B05DF804FBEF
:10147000DC670230E0670230E8670230C4670230A0
:1014800030B51C4B85B09D6AA8470369082B03D073
:101490006FF0800005B030BDA847174C8368A3608B
:1014A000A847037D01A8237602F0F0FB0028EFD1C6
:1014B000019BA26863609DF80C3021465343029A59
:1014C000E360B2FBF3F30D480D4A238200F07AF992
:1014D0000028DFD1094800F0B0F90028DAD0074829
:1014E00000F0C5F90028D5D1044805B0BDE830406A
:1014F00000F0A3B9D468000C800E0230C46702303B
:10150000A025000C2DE9FF471946DDE90C6452EADD
:1015100001030546104633D034F0070733D12A467D
:10152000FFF786FF30B9194B9B68DB0705D56FF0D5
:10153000840022E010F18C0F1FD144F4403ADFF810
:101540005080144CDFF85090B6F5007F354628BF28
:101550004FF400750F482946FFF756FF33465246B1
:1015600041464846CDE90174009500F096F920B94E
:10157000761B2AF4403A2F44E6D104B0BDE8F08748
:101580006FF08600F9E76FF08500F6E7E867023054
:10159000DC670230C4650230C46702302DE9F74FC2
:1015A000194652EA010304460C9E1046DDF83880C5
:1015B00033D02246FFF73CFF054608BB184B1C689A
:1015C000B4422AD30D9BA41B9C4228BF1C46154F36
:1015D000DFF85490DFF854A0C8F80040B4F5007F5D
:1015E000A34628BF4FF4007B33465A46494650462F
:1015F000009700F059FA054630B10023C8F80030D2
:10160000284603B0BDE8F08F59463846FFF706FF7D
:10161000B4EB0B045E44E1D1F2E76FF08605EFE72F
:10162000E8670230C4650230DC670230C46702300C
:1016300038B50546194610462A46049CFFF7F8FEC1
:1016400028B9034B1A689B68C4E90022A36038BD1F
:10165000E867023010B50446194610462246FFF7E7
:10166000E7FE58B9064B9B68DB0705D4BDE8104080
:101670000449054800F008BA6FF0840010BD00BFAF
:10168000E8670230DC670230C46702300020704730
:101690000020704710B50C460368C268017E02FB4B
:1016A000043005F0E5FB002010BD10B51446C268FB
:1016B000006802FB01332146029A184405F08EFCB3
:1016C000002010BD10B504461046E26802FB01334D
:1016D0002168029A194405F081FC002010BD2DE913
:1016E000F04F03688FB006AA04460E46D3F80C806C
:1016F00000F07AFB00285FD10BA800F0E8FD01465E
:1017000000285CD1DDE9067A202206A8099D05F0B3
:10171000AFFB3146204606AA00F038FC00284BD12A
:10172000834681462368DB8A5B4515D8002D35D179
:101730002946204602AA00F0B4FB00283CD12946E5
:10174000204602AA00F078FDB0BB204600F05DFD07
:1017500078B36FF083002FE0B3451CD05946204684
:1017600006AA00F041FB38BB069BBB420DD10BA87B
:1017700000F0ADFD48B9079B534506D9984528BFF1
:1017800098465B1B0793099B99445946204606AA35
:1017900000F0FCFB80B90BF1010BC3E743462A467E
:1017A00039462046CDE900A900F09FF920B9002F65
:1017B000CBD1204600F003FB0FB0BDE8F08F6FF0F7
:1017C0008B00F9E7F8B50D461746064690B389B386
:1017D00082B30B8AB1F814C0012BCA68C88A23D916
:1017E000032B24D00024022B06D1A2EB4011183980
:1017F000614538BF6FF08604944588BF6FF086045A
:10180000022B0CBF0123023B03EB40031B010833F7
:101810009A420FD334B918222146304605F028FBEE
:10182000C6E900572046F8BD6FF08604DBE76FF08D
:101830008604E1E76FF08604F4E737B5054600F06B
:1018400088FC044658B94FF08071284601AA00F080
:101850000AFB38B928460199FFF741FF04462046A4
:1018600003B030BD10F18C0F18BF0446F7E700F04D
:101870009DBB10B58AB0144602AB01AA00F0C4FAB1
:1018800040B9059B6360049B2360BDF81830A360DA
:101890000AB010BD6FF08B00FAE72DE9F04F93B05E
:1018A0000DF128081746DDE91C9504468A462022DA
:1018B000002140469B4605F0DBFA4FF6FF7317F018
:1018C0007F4FCDE9043304D06FF0860013B0BDE83C
:1018D000F08F23680BF1FF3B5E8A5146B3444346C9
:1018E0007642204604AA06EA0B0600F08DFA00288C
:1018F00040F08280BA03049904D50D9BB3426ED1A7
:101900000C900E9705914FF6FF73059A9A427BD182
:1019100023689B8AB342D7D3049906AB8A1ACDE9D0
:10192000028305AB18BF0122CDE90073514633464F
:10193000204600F0C2FA0028C8D1B9F1000F6BD1DF
:1019400020460A9906AA00F077FC002851D1059993
:101950004246204600F01AFB0146002849D1DDE945
:1019600004539D4228BF1D4620462A4600F0DBFB5B
:1019700000283ED14FF6FF72049B93420FD0059A88
:1019800093420CD09A4238BF1A462046691C00F098
:10199000CAFB70BBDDE904539D4238BF1D46236876
:1019A0002046DA8A691C00F0BEFB10BB0A9B002BA4
:1019B00064D1B9F1000F61D0204600F000FA002890
:1019C00084D14FF6FF73049999423FF47FAF059B92
:1019D00099423FF47BAF2046FFF781FE76E70E9BEE
:1019E000424643F0807320460E9300F0CFFA002861
:1019F00089D06FF0830069E710F18C0F7FF466AF38
:101A0000FB037FF563AF7EE720460A9906AA00F044
:101A100048FA002891D0ECE723685A8A531E2B42DB
:101A2000E7D10C9B09F1FF3616449D42C2F100023A
:101A300006EA0206DDD8324629460D9800F03BFC46
:101A40000028D6D11E9B4246CDE9006320462B4696
:101A500006A900F0C0F80028CBD10C9B4D449D4254
:101A60000A99204688BF0C95069D00F0A3F92946E7
:101A700006900A9A204600F086FA61E7204600F0B8
:101A8000C4FB002898D0B4E713B5002301AA04468C
:101A900000F0BAF928B920460199FFF720FE02B0FC
:101AA00010BD6FF08B00FAE770B58CB015461C4680
:101AB00003AA04AB064600F0A7F998B92A462146C6
:101AC000069800F0F8FB58B9109B22460093304668
:101AD0002B4604A900F05EF8002818BF6FF08300C1
:101AE0000CB070BD6FF08B00FAE72DE9F04786B0BF
:101AF0001646DDE90E9702AA054688469A4600F08A
:101B0000D0F9044698B9049A4146324428460492D2
:101B100000F050F906467FB101464A462846CDE915
:101B200000A7029B00F0D1FA28B16FF08304204691
:101B300006B0BDE8F0870127039A4A450BD2A9EB0E
:101B40000203CDE9002331462846029B00F0BDFA8E
:101B50000028EAD1012742462846029900F013FAEC
:101B60004146284602AA029600F066FB044628B1C8
:101B700042463146284600F006FAD8E7B8F1000F91
:101B8000D5D0002FD3D06B683146DB6828689847E2
:101B90000446CCE72DE9FF410D46164609686A4622
:101BA00004461F46DDF8288000F07BF970B90099E3
:101BB0004B1C0BD062686B680A9755684246AC466E
:101BC0002068334404B0BDE8F04160476FF0830003
:101BD00004B0BDE8F0812DE9F3471546DDE90AA917
:101BE0000F4698461168044600F0E4F86B687A687E
:101BF0009844A8EB020306460146CDE9002320469F
:101C00003B6800F062FA20BB6368CDF800A0D3F80F
:101C100008A04A46434631462068D047C8B9EB6819
:101C20006A68B9681A4423682046DB685B1A9B1A05
:101C3000CDE9002331463B6800F047FA48B92B68EC
:101C40003BB1314663682068DB6802B0BDE8F0470D
:101C5000184702B0BDE8F08713B510240B014168A6
:101C600000948C68083341690068A04702B010BD39
:101C700013B50146837B5A1CD2B282730068047E7E
:101C8000944204BF02338B73082400234A684B73C9
:101C90000094946801F108024969A04702B010BDA0
:101CA000436810B5416904461B690068984750B9FC
:101CB00023681A8A022A06D96268A1681846BDE814
:101CC00010401269104710BD0B79012B08D1036831
:101CD0004A791B7E9A4214BF00206FF08300704740
:101CE000022B02D103688A79F3E76FF08300704713
:101CF0000822F0B5436887B000925D68002304466F
:101D0000194600686A44A84700283CD1204602A929
:101D1000FFF7DAFF002815BF002601264FF0FF3538
:101D200000250822636800925F6801210023206873
:101D300004AAB84778BB204604A9FFF7C5FF50BBEB
:101D40003EB323689DF816201B7E9DF80E10B3FA53
:101D500083F35B099A4203D1501CC0B2814209D17E
:101D6000994203D14B1CDBB29A4210D191422CBF55
:101D70000026012635462561B5FA85F500206D0956
:101D8000656107B0F0BD00264FF0FF35C9E70026BA
:101D9000F0E70125EFE7002EEDD16FF08300F0E7CB
:101DA000008A02280CBF0020033800EB410000012C
:101DB0001830704709B9406970478068704710B59E
:101DC0000446FFF755FF70B963686169DB682068F6
:101DD000984740B9D4E904232046C4E90432BDE859
:101DE0001040FFF75DBF10BD73B505680446284677
:101DF000FFF7D6FF03462020616800904E68284612
:101E00002169B04702B070BD2DE9F043074688460E
:101E100091461C46002589B03B68DB8AAB4202D85C
:101E20006FF08B0616E06A4629463846FFF7DCFF5E
:101E3000B0B90C22414605A805F0C0F8064668B9BD
:101E4000C9F8005034B16D460FCD0FC495E80F00AE
:101E500084E80F00304609B0BDE8F0830135DBE7C8
:101E60006FF08306F6E7F0B505460E4617460024E8
:101E700089B02B68DB8AA34202D86FF08B0009E09F
:101E80006A4621462846FFF7AFFF38B9049B1E4239
:101E900002D03C6009B0F0BD0134EAE76FF0830086
:101EA000F8E713B510240B01416800944C6808331F
:101EB00001690068A04702B010BD2DE9F04F064649
:101EC000894690461F464FF0000B89B0DDE9145A51
:101ED0003368188A02280CBF00200338013083457C
:101EE00002D36FF08D0420E0524659463046FFF78A
:101EF000D8FF0446002835D1DAF8082097422ED8BA
:101F000033684946DB68C5F800B09B1A6B600C2249
:101F1000EF6005F1140005F061F8129BAC602B61D5
:101F2000DAF80830DB1BCAF8083000253368DB8A92
:101F30009D4205D26A4629463046FFF755FFA0B1BB
:101F40004FF6FF75139B1D60D4B94FF6FF739D428A
:101F500008BF6FF08D04204609B0BDE8F08F0BF18B
:101F6000010BB5E76FF08304DFE705A800F0AFF9D8
:101F700020B1B8F1000FE5D14FF001080135D5E7E8
:101F80006FF08D04E7E702B18160704773B50568B3
:101F900004462846FFF704FF0346202061680090AE
:101FA0008E6828466169B04702B070BD70B58CB0CC
:101FB0000546FFF79DFE002860D16E696B683146CB
:101FC0001B6928689847044600286FD1B6FA86F145
:101FD0006B6828681B69490998470446002865D141
:101FE0002B681A7EB2FA82F25209AA731A8A022A5E
:101FF0000CBF01220222AA6002222A730122D98A7E
:10200000C5E904021846FFF7CBFEDB680190181AF9
:1020100021460290009228466A46FFF71DFE0446BC
:10202000002843D106462B680190DB68029328689C
:10203000038A022B24D1002C44D12B681B8A022B4B
:1020400002D0033B9C4225D32022002104A804F0A7
:102050000FFF00242B68DB8AA3422AD82846FFF70B
:1020600007FE08BB6B686969DB6828689847044607
:10207000E0B9D5E90423C5E9043217E000269DE75D
:10208000033B9E42D7D26B68F11C1B69984701360F
:102090000443CCE7E31C01346A46214628460093FA
:1020A000FFF7DAFD0028C8D06FF0830420460CB09B
:1020B00070BD2146284604AAFFF768FF0028F3D127
:1020C0000134C7E76FF09104F0E72DE9F04F0446C3
:1020D000884616469946C3B0DDE94CA51DB9284689
:1020E00043B0BDE8F08FB5F5807F2F4628BF4FF491
:1020F000807763680097D3F804B049465346206858
:1021000002AAD8470028EBD163680097D3F808B03B
:1021100041463346206802AAD8470028E0D13E4411
:10212000BA44ED1BDAE737B5056804462846FFF7E1
:1021300037FE1346024619462846FFF731FED4E91A
:102140000431801ACDE900202046FFF7BEFF03B01E
:1021500030BD2DE9F041436805461B68006886B034
:102160009847044628B92846FFF7C2FD28B16FF00A
:102170008304204606B0BDE8F08108266B6805F1AF
:1021800008070096D3F804803A4623462969286850
:10219000C0470028EBD139462846FFF795FD0028B7
:1021A000E5D12846FFF77CFD04460028DFD12B7BD4
:1021B000012B25D101460DEB06022846FFF771FEE3
:1021C00004460028D5D1049B2A68C3F1FF23D268B6
:1021D00003F57F03F8331344CDE900633246284604
:1021E0002B696969FFF771FF04460028C1D16B7B39
:1021F0002846AB7302232B73FFF7E1FD0446B8E7D3
:10220000022B18BF6FF08304B3E710B586B000212E
:1022100002AA0446FFF745FE60B9039A2068049BB2
:10222000D118C36820465B1ACDE90023D4E90431F4
:10223000FFF74BFF06B010BDF0B505460C4687B062
:1022400009B94369136021462846FFF705FD014699
:10225000C0B9D5E904767CB900212868FFF7A0FD54
:1022600022011832801ACDE900203B46314628462B
:10227000FFF72BFF07B0F0BD284602AAFFF711FEBB
:10228000014610B16FF08300F4E7284602AA0296D7
:10229000FFF7E2FC0028F5D1012CDDD01822230144
:1022A000103B019331463B4628460092FFF70DFF55
:1022B0000028D1D0DEE7814206D8401A904234BFD0
:1022C0006FF08600002070476FF08600704700F1C5
:1022D0000C03984202D16FF08B00704710F8012B6D
:1022E000002AF6D0002070472DE9F04F0025A1B05C
:1022F00004A8049504F076FF4FF018080646DFF8AE
:10230000E490394FB54201D1002025E008FB05FAE1
:10231000049B03EB0A02116949455AD100219468D4
:1023200008A853F80A20FEF763FF282200210DEBCE
:10233000020004F09DFD0DF10E02049B019207AA1C
:1023400053440092D3F814B0302106AB05AA14A868
:10235000D84720B16FF0920021B0BDE8F08F089A05
:102360000B9B0C92099A0D92DAB222B923F0FF036B
:1023700043F001030B934FF6F8714FF6FF72069B83
:102380008B4288BF1346ADF82A30079BBDF80E106C
:102390000F93129BFBB9ADF82810049B28225344DD
:1023A0001B690DEB02010B9313F0FF0308BF0C93A5
:1023B00060235C4304F1340038443C4404F00EFED6
:1023C0002046059A14A904F009FE059B2363012306
:1023D000E365013596E700230AA81A4608F056FD82
:1023E000DBE700BF01010080188F02307FB56B462C
:1023F000154683E803000AB300240646146003A8C8
:10240000039404F0EFFE039BA04209D0194653F851
:10241000182B964208D1D1E90223911E0B4305D116
:102420006FF08B0004B070BD0134EDE76021054B07
:10243000002001FB02331B6B2B60F3E76FF086007B
:10244000F0E700BF188F02302DE9F04F0128074652
:10245000154698468DB004D96FF086000DB0BDE8E2
:10246000F08F6023494E03FB0063DB6D002B00F00F
:102470008680002AF0D0D2E902B900240DF1240AA6
:102480005046099404F0A8FE2346099A984263D066
:10249000144652F80C1B8B4560D1D4E9011439B1B4
:1024A000002354F8332004EBC300914551D1446814
:1024B00060237B4303F134012822314428460793EB
:1024C00004F08CFD5A4649460AA8FEF791FE0A9987
:1024D0006A68A9600B99079BE960D1B221B922F023
:1024E000FF0242F001026A60E10448BF44F48064E4
:1024F000A20448BF44F400642C61602505FB076515
:1025000016992A6B8A423DD8B8F1000FA4D01799CA
:102510000029A1D006EB030B630424D540F203137A
:10252000994520D00420CDF8249014F02DF8169B66
:102530000022CDE903830423CDE901A32B6B1146CF
:1025400000935B4617F05AFB50B9DDE916231A6079
:1025500084E701339942A4D10024A9E7013395E728
:102560006FF083007AE75946404604F037FD60205B
:1025700000FB0766179A336B002013606EE76FF05D
:102580008B006BE76FF0890068E700BF188F02309F
:102590006D62656420544C5320332E342E3000007D
:1025A0008D16000CC516000CAB16000C9116000C15
:1025B0009516000C00000000000000000000000064
:1025C00070B5224E9EB04FF000414FF0FF3004F046
:1025D00091FCC306054610D5102012A904F092FC08
:1025E000044650B9129B002B0EDA0333D8BF6FF0AC
:1025F00080042146139804F0A1FC002DE3DA4FF08B
:10260000004004F0BBFCDEE71CD1169B02AA014689
:10261000139804F07FFC04F04DFD314668460094A9
:1026200004F04AFD169A02A96846013A04F068FDD2
:10263000202201AB0AA96846019404F083FD00F052
:102640004FF8D6E76FF08004D3E700BF090000021F
:102650004A68034612F01F0030B527D11C680B787A
:1026600065686060A3600B7C22F01F0203F0010329
:1026700013438A7CD20002F018021A434B7C5B00A1
:1026800003F006031343E3608B68013B23F01F0252
:10269000CB685B0003F00E03134343F00103236197
:1026A0006560BFF34F8FBFF36F8F30BD0120FCE734
:1026B000002918BF0421002A18BF02220368074816
:1026C0001143186359605A6842F001025A60BFF31F
:1026D0004F8FBFF36F8F0020704700BF04AAFF0029
:1026E00010B50E4C0E4A0F4B0F492046C1E901238D
:1026F000FFF7AEFF20460D49FFF7AAFF20460C4921
:10270000FFF7A6FF20460B49FFF7A2FF2046BDE8D2
:10271000104000220121FFF7CBBF00BF200C023088
:1027200000000408FFFF0408240C0230380C0230BB
:102730004C0C0230600C0230000000000000000071
:082740002C450000010000001F
:10274800FEE7FEE7FEE7FEE7FEE7FEE7FEE7FEE759
:10275800FEE7FEE7FEE7FEE7FEE7FEE7FEE7FEE749
:10276800FEE7FEE7FEE7FEE7FEE7FEE7FEE7FEE739
:10277800FEE7FEE7FEE7FEE7FEE7FEE7FEE7FEE729
:10278800FEE7FEE7FEE7FEE7FEE7FEE7FEE7FEE719
:10279800FEE7FEE7FEE7FEE7FEE7FEE7FEE7FEE709
:1027A800FEE7FEE7FEE7FEE7FEE7FEE7FEE7FEE7F9
:1027B800FEE7FEE7FEE7FEE7FEE7FEE7FEE7FEE7E9
:1027C800FEE7FEE7FEE7FEE7FEE7FEE7FEE7FEE7D9
:1027D800FEE7FEE7FEE7FEE7FEE7FEE7FEE7FEE7C9
:1027E800FEE7FEE7FEE7FEE7FEE7FEE7FEE7FEE7B9
:1027F800FEE7FEE7FEE7FEE7FEE7FEE7FEE7FEE7A9
:10280800FEE7FEE7FEE7FEE7FEE7FEE7FEE7FEE798
:10281800FEE7FEE7FEE7FEE7FEE7FEE70000000052
:1028280008B572B61C4B83F309881C4B83F30A88DE
:1028380083F30B881A4B16A1D1E90001C3E9000103
:1028480000F038F8174B18498B4212D30020174B69
:1028580017498B4218D304F009FA186850F8224037
:10286800586840F82240013298688242F5D30C3308
:10287800EAE70022F8E71C6844F8220001325C68A5
:10288800A242F8D30833E4E70022F8E7AFF3008068
:10289800A5EDF5FEA5EDF5FEF80B023000040230BB
:1028A800F80B02304002000C6402000C6402000CB9
:1028B8008402000C014A024B9A6070470000000C29
:1028C80000ED00E0F8B5044600680E46022833D053
:1028D800032838D0012834D1384B1B689D0738D5D8
:1028E800364D2B6823F080632B6004F0F7F9074618
:1028F8002B68190107D504F0F1F9C01B0228F7D994
:102908002B68180124D4A368D4F800C01F02636898
:102918002A48013B1D01EEB1012E41D10369284A25
:1029280026691A4042EA0C02760842EA0703013E89
:102938002B4343EA465318E0204B1B6813F4806F7F
:10294800CED1012005E01D4B1B6813F4C02FF7E71B
:102958000320F8BD03691B49194041EA0C0141EA0B
:102968000703E16843EAC1632B43144D03612B68F5
:1029780043F080632B6004F0B1F906462B681B0115
:1029880007D404F0ABF9801B0228F7D92B681A0189
:10299800DED50A4AA169136900200B431361D8E701
:1029A8000269094B6669134043EA0C0376083B4306
:1029B800013E2B4343EA4663D7E700BF00100250AD
:1029C8000C809FFF0C80FF070C80FFF970B5044650
:1029D8000068022844D0032849D0012845D1274B54
:1029E8001B689D0749D5254D2B6823F080532B6024
:1029F80004F074F906462B68990007D504F06EF9BF
:102A0800801B0228F7D92B68980035D41B4D1C4B26
:102A18006A69134022681343A26843EA0223E26802
:102A280043EAC2636268013A43EA02136B612B68A6
:102A380043F080532B6004F051F906462B689B0045
:102A480007D404F04BF9801B0228F7D92B689A00A9
:102A580012D50A4A2169536900200B4353610CE0DF
:102A6800064B1B6813F4806FBDD1012005E0034BB2
:102A78001B6813F4C02FF7E7032070BD0010025045
:102A88000C80FF072DE9F3470568044615F4006537
:102A980007D0C16E402923D013D839B320292CD0B0
:102AA80001252368DB040AD5216FB1F5007F30D0FA
:102AB80027D8A1B3B1F5807F00F03C8101252E46CF
:102AC8003DE0602901D08029EAD1A84AE16ED2F818
:102AD8009C30002523F0E0030B43C2F89C30E0E76C
:102AE800A24AD36843F48033D360EEE70430FFF79B
:102AF800E9FE05460028D4D1E7E72030FFF766FF56
:102B0800F7E7B1F5407F02D0B1F5806FD6D12E46F8
:102B180009E0964AD36843F48033D360F7E7201D71
:102B2800FFF7D0FE0646002E40F009818F4A216F3C
:102B3800D2F89C3023F4E0630B43C2F89C3023683E
:102B48009F0330D5894B9A6DD00000F1FA804FF081
:102B580001089A6D42F080529A659B6D03F080538C
:102B68000193019B824F3B6843F480733B6004F000
:102B7800B5F881463B68DA0509D404F0AFF8A0EB54
:102B880009000228F6D93B68D90540F11E81002EBC
:102B980000F0DA803546B8F1000F04D0734A936D1F
:102BA80023F0805393652368DA0708D56F49606B73
:102BB800D1F8882022F003020243C1F888209F0739
:102BC80008D56A49A06BD1F8882022F00C0202438C
:102BD800C1F88820580708D56449E06BD1F88820E7
:102BE80022F030020243C1F88820190708D55F494E
:102BF800206CD1F8882022F0C0020243C1F8882056
:102C0800DA0608D55949606CD1F8882022F4407258
:102C18000243C1F888209F0608D55449A06CD1F812
:102C2800882022F440620243C1F88820980508D51C
:102C38004E49E06DD1F8882022F440220243C1F8C1
:102C48008820590508D54949206ED1F8882022F4F2
:102C580040120243C1F888205A0208D54349606EE1
:102C6800D1F8882022F440020243C1F888209B0151
:102C78000CD5A36EB3F1807F00F0AA80B3F1007F7A
:102C880000F0B680002B00F0A880012523685F06BD
:102C980008D53649E06CD1F8882022F44052024326
:102CA800C1F888201E0608D53049206DD1F8882043
:102CB80022F440420243C1F88820D80508D52B49A0
:102CC800606DD1F8882022F440320243C1F8882090
:102CD800D90208D52549A06DD1F89C2022F003021D
:102CE8000243C1F89C209A0410D5204A616FD2F89B
:102CF8008830B1F1006F23F0406343EA0103C2F862
:102D080088307DD1D36843F48013D36023681B03D4
:102D180040F19980A16F154BB1F5804F7BD1D3F865
:102D28009C2042F48042C3F89C20DA6842F4803246
:102D3800DA6088E004F12000FFF748FEF2E6354645
:102D4800FDE64FF000080DE7084FD7F8903013F470
:102D580040730FD1054AD4F89010D2F8903023F47C
:102D680040730B43C2F8903015E700BF00100250C3
:102D780000700050D4F890209342EBD0D7F8902000
:102D8800D7F8903022F4407143F48033C7F890307C
:102D9800D7F8903023F48033C7F89030D307C7F8BA
:102DA8009010D7D503F09AFF41F2883A8146D7F8B8
:102DB80090309907CED403F091FFA0EB090050455D
:102DC800F5D9D7F890309807C4D403252E46E2E603
:102DD800544AD36843F48013D3607EB9514AA16E34
:102DE800D2F8883023F040730B43C2F888304DE79F
:102DF8000021201DFFF766FD0646EEE7354645E74C
:102E0800B1F1806F82D10121201DFFF75BFD002801
:102E180018BF05467AE7D3F88820B1F1806F22F011
:102E2800406242EA0102C3F88820D3F89C2022F4C9
:102E38008042C3F89C206ED10121201DFFF742FD7E
:102E4800002818BF054623685F0310D5354AE16F8F
:102E5800D2F88830B1F1006F23F0406343EA0103F0
:102E6800C2F888304CD1D36843F48013D360236808
:102E78005E0414D52B49D4F88020D1F88830B2F1FB
:102E8800805F23F0405343EA0203C1F8883006D13B
:102E98000221201DFFF716FD002818BF05462268ED
:102EA800D00309D51F49D4F88400D1F89C3023F009
:102EB80004030343C1F89C30910209D51949D4F899
:102EC8008800D1F89C3023F018030343C1F89C30E4
:102ED800D30111D5134AD4F88C10D2F89C30B1F52F
:102EE800001F23F4401343EA0103C2F89C3003D1C6
:102EF800D36843F48013D360284602B0BDE8F08756
:102F0800B1F1806FB3D10121201DFFF7DBFC002850
:102F180018BF0546ABE7B1F1006F94D1DA6842F407
:102F2800801205E7001002507047000038B50446CB
:102F3800002830D0437A03F0FF0213B90272FFF77A
:102F4800F3FF0223226863721368616823F00403A5
:102F58001360136823F0804323F020030B4343F0EE
:102F680080431360214B13614AF2B3231361136842
:102F780023F08043136003F0B1FE054623681A6806
:102F880051000AD41A6842F004021A605B685A06B3
:102F980011D50423637201200CE003F09FFE401B4F
:102FA8000228EBD923681B685800E7D501200223C3
:102FB8006072E36038BD03F091FE054623685868E7
:102FC80010F0040003D101236372E060F2E703F01C
:102FD80085FE401B0228F1D923685B685B07EDD5A5
:102FE800042363720223E360D5E700BFBC0A5917C4
:102FF8007047002313B5019303685A68520709D430
:103008005A6822F040025A60C36823F00803C3607C
:10301800002018E01A6842F080421A601A6822F00C
:1030280080421A6002220192019A013A0192019AA1
:103038005AB901244472C368027243F00203C360A0
:10304800FFF7D6FF204602B010BD1A685400EBD433
:103058005A68510642BF5A6822F040025A6002225A
:103068000192019A013A0192019A002AE1D05A6824
:103078005207F6D4C8E7F8B5037A0546012B0E4681
:103088003ED00124437A0472A34236D1022343720C
:1030980003685C6814F0400406D00823C360FFF797
:1030A800A8FF0128044626D003F018FE07462B681F
:1030B8005A68D00710D59A6859682A61490643BFEB
:1030C8000822EA605A68326044BF22F001025A605E
:1030D80001236B7200230DE003F000FEC01B0228E1
:1030E800E5D92B685B6813F00103E0D101240222C3
:1030F8006C72EA602B722046F8BD0423C360E9E7CE
:103108000224F8E70B4BC3E9000100200A4B83F8BF
:103118000003D3F8802222F00102C3F88022D3F8FA
:1031280080220122C3F88020BFF34F8FBFF36F8F37
:10313800704700BFB897023000E100E000232DE996
:10314800F04F5E4CDFF87881DFF878910A6832FA40
:1031580003F501D1BDE8F08F4FF0010C0CFA03FC28
:103168001CEA020200F09C8003264D684FEA430ED9
:1031780025F0100A0AF1FF3706FA0EF6012F6FEA5A
:10318800060611D8876807EA060BCF6807FA0EF714
:1031980047EA0B078760476827EA0C0CC5F3001756
:1031A8009F4047EA0C074760C768BAF1020F07EA71
:1031B800060C8F6807FA0EF747EA0C07C76016D1A6
:1031C8004FF00F0C4FEAD30A00EB8A0A03F0070B03
:1031D800DAF820704FEA8B0B0CFA0BFC27EA0C0C80
:1031E8000F6907FA0BF747EA0C07CAF82070076857
:1031F8003E4005F0030707FA0EF73E430660EE006F
:103208004ED54FF00F0C23F0030707F1A04707F541
:103218003D3703F0030E3E6E4FEACE0E0CFA0EFC5D
:1032280026EA0C0C284EB0423CD006F58066B04227
:103238003AD006F58066B04238D006F58066B042CE
:1032480036D006F58066B04234D0404534D0484583
:103258000CBF0626072606FA0EF646EA0C063E6658
:10326800D743D4F8806015F4803F0CBF3E40164326
:10327800C4F88060D4F8846015F4003F0CBF3E4069
:103288001643C4F88460266815F4801F0CBF3E40BE
:10329800164326606668AD0254BF3E40164366601A
:1032A800013353E70026D6E70126D4E70226D2E702
:1032B8000326D0E70426CEE70526CCE700F4025023
:1032C800001402520018025200000252264A936863
:1032D800D16813F00C0305D00C2B16D101F00301B3
:1032E800012919D11168090754BFD2F8942012682E
:1032F8001E4954BFC2F30322C2F3031251F822003D
:1033080013B10C2B09D000207047042B29D0082BAF
:10331800174818BF002070470020134AD168D368A7
:1033280001F00301C3F30313022903F1010308D0D9
:10333800032906D0B0FBF3F0D268C2F3062250434B
:1033480006E0D0680A4AC0F30620B2FBF3F35843FC
:10335800054BDB68C3F3416301335B00B0FBF3F05B
:1033680070470348704700BF001002507868000C8F
:103378000024F40008B5FFF7A9FF044B044A9B6832
:10338800C3F30313D35CD84008BD00BF001002503C
:103398006068000C08B5FFF7EDFF044B044A9B6812
:1033A800C3F30223D35CD84008BD00BF001002500D
:1033B8007068000C08B5FFF7DDFF044B044A9B68F2
:1033C800C3F3C223D35CD84008BD00BF001002502D
:1033D8007068000C042A09DB0B68036000F1040024
:1033E80001F10401A2F10402042AF5DA002A09D045
:1033F8000B78037000F1010001F10101A2F1010253
:10340800012AF5DA70470000064B82B018680023DD
:1034180082B262F30F03000C60F31F43184602B038
:10342800704700BFD068000C0C2070470020704720
:10343800012805D9022814BF6FF004000020704746
:103448006FF0030070476FF003007047014B186876
:10345800704700BFE49C0230014B5868704700BFBA
:10346800F08F023008B54FF47A7000F0D1F90020DF
:1034780008BD00000C4B70B51B685A6992B11C69F5
:10348800002301390144151DA34201D1002070BD5C
:1034980052F83360864203D855F83360B14201D9F7
:1034A8000133F1E70120F2E7F08F02302DE9F04116
:1034B8001446204B96001A6807466FF341021A60BB
:1034C800421E02EB8402B2F5002F0D4612D31A4AAF
:1034D800126894693CB16FF004001A6842F0020265
:1034E8001A60BDE8F0813246FF21284603F0BCFC93
:1034F8002046F6E70023DFF844803146C8F800305C
:10350800FFF7B8FF324690B107F140612846FFF750
:1035180061FFD8F8003023B132460021284603F075
:10352800A3FC002324F04040C8F80030D9E707F195
:103538000061EBE7E49C0230F08F0230E89C023037
:103548002DE9F04F3B4E4FEA8208336807466FF388
:1035580041038A4685B0414615463360FFF78AFF26
:10356800354B7A1E0028424415BF4FF00109994691
:103578004FF0406B4FF0006BB2F5002F12D22F487E
:1035880043681B69B7FBF3F103FB117151B9B8FB31
:10359800F3F403FB14842CB923460168D1F808C05E
:1035A800634508D16FF00400336843F002033360C9
:1035B80005B0BDE8F08FC86800EBC30E50F83300C3
:1035C800874203D3DEF8040082422CD90133E7E7AF
:1035D800002316E0C3B908220AEB04010DEB020030
:1035E80003F0F8FCDDE90223B3F1FF3F08BFB2F1B5
:1035F800FF3FEDD00BEB07014846214400F044F9AA
:1036080003460834A045E5D1326801936FF3000200
:10361800326000F0E9F8019B25F04040002B18BF0C
:103628004FF0FF30C4E700F0BFF8336843F0010300
:103638003360D0E7E49C023001000080F08F023054
:1036480070B5B0F5002F044686B00BD22A4A5568EB
:10365800A968B0FBF1F301FB13031BB912681068EA
:10366800834208D16FF00400244A136843F0020330
:10367800136006B070BD516801EBC30651F83310F2
:103688008C4202D371688C4201D90133E8E72046A5
:103698000421FFF7EFFE0028194B18BF0223B4F5E9
:1036A800802F02932CBF02230123E868039302238F
:1036B800B4FBF0F405936B689C4200D9E41A0F4DF3
:1036C80004942B686FF341032B6000F06DF82B68AE
:1036D80001A943F001032B6002A800F06FF904462A
:1036E8002B686FF300032B6000F07EF8201E18BFD4
:1036F80001204042BDE700BFF08F0230E49C023059
:1037080002000080174B1A6B02F02042B2F1204FE2
:1037180027D11A6B42F020421A63134A1368013307
:103728001360734603F00F030D2B14D1EFF30982D6
:10373800D2E90631C9010CD523F00101098801F449
:103748006840B0F5684F04D001F47841B1F5704F86
:1037580004D1043303E0EFF30882E9E7023393610D
:103768007047FEE700200250E89C02300B4930B554
:103778008D680B4C0B4931EA250128BF2146EFF330
:10378800108572B60C6844F001040C600260BFF347
:103798006F8F436085F3108830BD00BFF88F02300B
:1037A800282002402C2002500D4B9A6A002A04DB84
:1037B800DA6A002A0BDB002070470A4A9A6002F195
:1037C80088329A609A6A002AF2DA01207047054A1C
:1037D800DA6002F18832DA60D86AC00F704700BF39
:1037E8000020025023016745084B9A6A42F00042C4
:1037F8009A629A6A002ABFBFDA6A002042F0004241
:10380800DA62ACBF0120DB6A704700BF00200250BB
:1038180070B5044603F062FA174D06196B6ADA03AD
:103828001AD4164B164A9868164931EA200128BF5F
:1038380011460A68286A02F0FA0200F400500243AE
:1038480012D058681043586093040A6002D54FF4A8
:1038580000532B6201200EE0611CDFD003F03EFA1A
:10386800B042DBD3032006E0086810F0010002D064
:10387800012310460B6070BD00200250F88F023003
:1038880020200240242002502DE9F843164C984687
:1038980023780646012B0F46914623D00123237037
:1038A80000234FF47A706360FFF7B2FFB0B90F4B93
:1038B8000F4D4A4635EA260528BF1D463846434679
:1038C800A660FFF753FF4FF47A70FFF7A1FFA268D5
:1038D8002B6822F0004223EA02032B6000232370A6
:1038E800BDE8F8830220FBE7F88F02302820024069
:1038F8002C20025010B5EFF3108172B6124B134A08
:103908009C68134B33EA240328BF1346114A126CF0
:10391800520212D5C40742BF1A6842F004021A6064
:10392800820703D51A6842F400421A601A6842F402
:1039380080321A6081F3108810BD1A6842F4004280
:1039480042F00402F1E700BFF88F0230282002405D
:103958002C2002500020025030B5EFF3108472B6CC
:10396800134B144A9D68144B13EA250338BF1346BA
:103978002C3A126C12F4800F1A6813D122F40062E8
:103988001A601A6822F47E7222F0020242EAC00229
:1039980042F002021A601A6842F480321A6084F314
:1039A800108830BDC907E9D442F40062E8E700BFD7
:1039B800F88F02302C200250282002402DE9F843CD
:1039C800264E054633788946012B45D001233370AE
:1039D80000234FF47A707360FFF71AFF0446F0B9BA
:1039E8002B681F4A1F49B36031EA230828BF904655
:1039F80048F2040223F00043934215D16868FFF7A8
:103A080079FF4FF47A70FFF703FF0446B268D8F8DD
:103A1800003022F0004223EA0203C8F800300023F5
:103A280033702046BDE8F8834FF0FF33C9F8003003
:103A3800AF68D5E902321344BB42E7D93846696812
:103A4800FFF78AFF4FF47A70FFF7E2FE10B1C9F86A
:103A58000070DAE70137ECE70224E2E7F88F02307A
:103A6800282002402C200250B1F5417F10B567D2C2
:103A7800040F00F01F0202EB4413322B60D88006BB
:103A880035D5002B5CD140F201128A431BD12D4A57
:103A980013694FF0FF33136153696FEAD3436FEA39
:103AA800C343536140F202238B4315D1254A136A5D
:103AB8004FF0FF331362536A6FEAD3436FEAC3438D
:103AC8005362002012E0CA05ECD51E4A1069136142
:103AD8005369DB0CDB04E4E78C05F2D50020194AB6
:103AE800136A1062536ADB0CDB04536210BD40F2A8
:103AF8000110154B884323444FEA83030FD101205B
:103B08001C6890402043186040F2022088430ED180
:103B18000121186901FA02F202431A61D1E7C805C6
:103B2800F2D501241868944020EA0400EBE78905DF
:103B3800C7D50120196900FA02F221EA0202ECE76E
:103B48000120D3E70024035004C9001420F080505A
:103B5800B0F1005F30B502D01A4B98422FD10A68F5
:103B680032F000432BD14D6835F0804427D11543FE
:103B7800154AB0F1005F154B08BF13461A6808BF15
:103B88004FF4403022F0404242EA050218BF4FF499
:103B980080301A604FF0FF321D69400B82402A4086
:103BA8008D6E08312A431A6104F1400251F8045B12
:103BB8000134A04243F82250F6D1002030BD012044
:103BC800FCE700BF00000320002C03500030035026
:103BD80020F08050B0F1005F10B521D0134B98420F
:103BE80022D14FF48033124802685B0B02F0804404
:103BF8004C604FF0FF3402F000420A6002699C40BA
:103C080022EA04028A660022083102F1400450F8D0
:103C180024400132934241F8044BF6D1002010BDF4
:103C28004FF440330348DFE70120F8E700000320A2
:103C380000300350002C035010B5030F00F01F0490
:103C480004EB4311472919D810F020000BD0A9B96B
:103C58004FF0FF320A4B08461A606FF040425A6034
:103C6800FF229A6010BD012203F1A05303F54A43D5
:103C78009B001968A2400A431A60F3E70120F1E7A4
:103C88000028035048B14FF4B8324FF40053C0E94C
:103C9800002301230372002070474CF2DA2070479A
:103CA800BFF34F8F0549064BCA6802F4E06213431D
:103CB800CB60BFF34F8F00BFFDE700BF00ED00E012
:103CC8000400FA0510B5094C0020A3689847236939
:103CD80002209847A46A4FF4E1310120A047234607
:103CE800BDE8104001211520184700BF346A000CB8
:103CF80001F0DCB81E2819D8DFE800F010181014FD
:103D08001410101410101010181818181818181863
:103D1800181818181818181818161000202300203A
:103D28000B6070470423FAE74023F8E74CF25A3057
:103D3800704737B50C4601A91D46FFF7DBFF38B9B8
:103D4800019B29469A4228BF1A46204600F08EFF5A
:103D580003B030BD13461E2848D8DFE800F01047EE
:103D680015191D2125292D3135394747474747471B
:103D780047474747474747474747473D42000A465F
:103D880000200421FFF7D5BF0A4602202421F9E7C5
:103D98000A4603204421F5E70A4604204821F1E7B2
:103DA8000A4605204C21EDE70A4606206C21E9E782
:103DB8000A4607208C21E5E70A4608209021E1E71A
:103DC8000A460920B021DDE70A460A20D021D9E7B2
:103DD8000A460B20F021D5E70A461D204FF48871CA
:103DE800D0E70A461E204FF4A871CBE74CF25A30B0
:103DF8007047F0B593B00E4601A915461C46FFF76B
:103E080079FF98B9019B934218D3402B16D83046B6
:103E180002A900F02BFF48B9224602AB29199142AA
:103E280006D12A462146304600F064FF13B0F0BDA3
:103E380013F8010B12F8017BB843F0D04AF2C530F1
:103E4800F4E713461E2848D8DFE800F01047151994
:103E58001D2125292D3135394747474747474747CA
:103E68004747474747474747473D42000A460020DC
:103E78000421FFF7BEBF0A4602202421F9E70A46BB
:103E880003204421F5E70A4604204821F1E70A46C1
:103E980005204C21EDE70A4606206C21E9E70A4691
:103EA80007208C21E5E70A4608209021E1E70A4629
:103EB8000920B021DDE70A460A20D021D9E70A46C1
:103EC8000B20F021D5E70A461D204FF48871D0E772
:103ED8000A461E204FF4A871CBE74CF25A307047BF
:103EE80007B508216A460220FFF734FF082200219F
:103EF800684602F0B9FF03B05DF804FB07B504217A
:103F0800072001AAFFF726FF20B9019801288CBFD6
:103F18000020012003B05DF804FB000007B5202154
:103F28000020074AFFF78DFF30B90123042107203D
:103F380001AA0193FFF785FF03B05DF804FB00BFFA
:103F48000469000C07B520210220214AFFF779FFF8
:103F580000283AD1042103201E4AFFF772FFA0BBB4
:103F680004211D4A0846FFF76CFF70BB202106207C
:103F78001A4AFFF766FF40BB20210820184AFFF7BE
:103F880060FF10BB20210920164AFFF75AFFE0B94D
:103F980020210A20144AFFF754FFB0B920210B2032
:103FA800124AFFF74EFF80B940211D20104AFFF743
:103FB80048FF18B14CF25A33984206D10323042122
:103FC800072001AA0193FFF73CFF03B05DF804FB4B
:103FD8002869000C4869000C4C69000C5069000CF9
:103FE8007069000C9069000CB069000CD069000C75
:103FF800F069000C07B50421072001AAFFF7AAFE03
:1040080038B9019B43B10421072001AAFFF7A2FE9A
:1040180038B103B05DF804FBFFF780FF0028F2D049
:10402800F7E7019B012BF4D1FFF78CFFF1E70000C4
:10403800064B82B01868002382B262F30F03000CAB
:1040480060F31F43184602B0704700BF306A000C87
:104058000120704700207047002070476FF0030070
:1040680070470020704700207047002382B00193FA
:10407800019802B070476FF003007047002382B0C8
:104088000193019802B0704710B50C46014630B153
:104098002CB10448A2B200F055FD204610BD6FF0C7
:1040A8000400FBE7EC9C02300A4608B5014640B123
:1040B8003AB14FF47A73044892B200F018FC002029
:1040C80008BD6FF00400FBE7EC9C0230274B30B5CD
:1040D800DA6C89B042F00102DA64DA6C072502F082
:1040E80001020092009ADA6C214C42F00102DA6473
:1040F800DA6C204602F001020192019A1A6E03A9B5
:1041080042F480421A661B6E4FF4007203F4804337
:104118000293029B0223CDE903230693012307950B
:104128000593FFF70BF84FF48063204603A9039328
:104138000795FFF703F84FF4E1330E480E490C22B8
:10414800C0E900130023C0E905234FF40042C0E989
:104158000233C0E907230361436200F058FC0038CA
:1041680018BF0120404209B030BD00BF0010025006
:1041780000000252EC9C02300038015000207047C9
:104188007047704770477047D0F8882010B5222ACA
:104198000446036830D15B6AB0F86010826D0B404A
:1041A8001370836D01338365B0F85E30013B9BB2B9
:1041B800A0F85E30B0F85E2092B2CAB903681968F8
:1041C80021F490711960996821F00101996020210A
:1041D800C0F888100267C26E012A0AD11A68B0F8BE
:1041E8005C1022F010021A60FFF7CDFF0023E3668F
:1041F80010BDFFF7C6FFF9E79A6942F008029A6115
:10420800F6E7D0F8882010B5222A044603682ED194
:10421800596AB0F860201140826D22F8021B82654D
:10422800B0F85E20013A92B2A0F85E20B0F85E20A5
:1042380092B2C2B9196821F490711960996821F095
:10424800010199602021C0F888100267C26E012A16
:104258000AD11A68B0F85C1022F010021A60FFF751
:1042680092FF0023E36610BDFFF78BFFF9E79A6919
:1042780042F008029A61F6E72DE9F84F0368044610
:10428800DD69D3F800909E68D0F88820222A40F093
:1042980085800027B0F86080B0F868A0DFF808B122
:1042A80006F00106BAF1000F01D0AB0614D4B4F839
:1042B8005E309BB273B1B4F868209A420AD9236879
:1042C8009A6822F080529A60384A22671A6842F047
:1042D80020021A60BDE8F88F2368A26D5B6A03EAC2
:1042E80008031370A36D0133A365B4F85E30013B76
:1042F8009BB2A4F85E302368DD696A072AD0E80714
:104308000AD519F4807F07D001221A62D4F88C20CC
:1043180042F00102C4F88C20A90708D53EB1022258
:104328001A62D4F88C2042F00402C4F88C206A0780
:1043380008D53EB104221A62D4F88C3043F0020347
:10434800C4F88C30D4F88C3023B12046FFF71AFF1C
:10435800C4F88C70B4F85E2092B2002AA2D1236807
:10436800196821F480711960996801EA0B01996054
:104378002021C4F888102267E26E012A0AD11A683F
:10438800204622F01002B4F85C101A60FFF7FBFE1A
:10439800E76687E72046FFF7F4FEF9E79A6942F0F7
:1043A80008029A6196E700BFFEFFFFEF9141000CFB
:1043B8002DE9F84F03680446DD69D3F800909E683C
:1043C800D0F88820222A40F083800027B0F8608047
:1043D800B0F868A0DFF804B106F00106BAF1000FE2
:1043E80001D0AB0614D4B4F85E309BB273B1B4F804
:1043F80068209A420AD923689A6822F080529A6003
:10440800374A22671A6842F020021A60BDE8F88F1E
:104418002368A26D596A08EA010122F8021BA26505
:10442800B4F85E20013A92B2A4F85E20DD696A070A
:104438002AD0E8070AD519F4807F07D001221A622A
:10444800D4F88C2042F00102C4F88C20A90708D5C2
:104458003EB102221A62D4F88C2042F00402C4F859
:104468008C206A0708D53EB104221A62D4F88C3031
:1044780043F00203C4F88C30D4F88C3023B12046C2
:10448800FFF780FEC4F88C70B4F85E2092B2002A60
:10449800A4D12368196821F480711960996801EA28
:1044A8000B0199602021C4F888102267E26E012A66
:1044B8000AD11A68204622F01002B4F85C101A607B
:1044C800FFF761FEE76689E72046FFF75AFEF9E73E
:1044D8009A6942F008029A6198E700BFFEFFFFEF71
:1044E8000B42000C38B504462169A26803680A43E8
:1044F80061691D68C0690A43A149024329400A430A
:104508001A605A68E16822F440520A435A609D4A88
:10451800A16993421CBF226A11439A6822F06E4235
:1045280022F430620A439A60DA6A616A22F00F0262
:104538000A43DA62944A93421BD1944BD3F88830E9
:1045480003F00303013B022B00F2EA80904AB0F526
:10455800004FD35C40F0AC80082B26D8DFE813F07E
:10456800EF00E300A6002500E9002500250025004E
:10457800F300884A934206D1844B874AD3F888309F
:1045880003F00C03E3E7854A934219D17F4BD3F834
:10459800883003F03003202B00F0BD8007D8002BB3
:1045A80000F0CA80102B00F0C18001204FE0302BB2
:1045B800FBD1B0F5004F00F0C6804FF4004093E007
:1045C800774A93420FD1714BD3F8883003F0C00378
:1045D800802B00F0A08004D8002B00F0AD80402B89
:1045E800E1E7C02BE4E7B3F1502F13D103F5E03333
:1045F800D3F8883003F44073B3F5007F00F08B8064
:1046080005D8002B00F09880B3F5807FCBE7B3F591
:10461800407FCDE75B4A9342C7D15C4BD3F88830E3
:1046280003F44063B3F5006F18D006D85BB1B3F557
:10463800806FBAD1FEF74AFE07E0B3F5406FB4D1F8
:104648004FF400400BE0FEF7A5FE40B900204FF004
:104658000113A3660023C4E91C3338BD5148524BEB
:10466800626A656833F8122005EB4501B0FBF2F386
:1046780099429AD8B3EB053F97D80023194615F00D
:104688004FFB090241EA10616B080002C0182A4674
:104698004FF0000341F1000115F042FB434BA0F538
:1046A80040729A4281D82368D860CFE73D484AE0F3
:1046B800082B3FF67AAF01A252F823F0E946000C26
:1046C8001347000C2547000CB345000C1947000C94
:1046D800B345000CB345000CB345000CC345000CB2
:1046E800FEF758FE0028B1D0616A2F4A636832F895
:1046F8001120B0FBF2F000EB5300B0FBF3F080B2F6
:104708004FF6EF73A0F11002CBE7FEF753FEE9E78F
:10471800FEF7DCFDE6E7B0F5004FC7D02148E3E738
:10472800B0F5004FF1D1FEF745FE0AE0B0F5004FB5
:10473800EED1FEF7CBFD04E0B0F5004FD0D1FEF787
:1047480029FE002882D0616A174B626833F811305D
:10475800B0FBF3F3500800EB4300B0FBF2F04FF668
:10476800EF7283B2A3F1100191423FF61EAF20F021
:104778000F00226880B2C3F342031843D06065E794
:10478800F369FFCF0080005000380150001002503C
:104798006C6A000C004400506F6A000C004800501E
:1047A800004C00500024F4007C6A000CFFFC0F0051
:1047B800836A10B5DA0706D50168C46A4A6822F424
:1047C800003222434A609C0706D50168046B4A6898
:1047D80022F4803222434A60590706D50168446BA7
:1047E8004A6822F4802222434A601A0706D50168E3
:1047F800846B4A6822F4004222434A60DC0606D5EC
:104808000168C46B8A6822F4805222438A60990640
:1048180006D50168046C8A6822F4005222438A6033
:104828005A0610D50168446C4A68B4F5801F22F412
:10483800801242EA04024A6005D14A68846C22F474
:10484800C00222434A601B0606D50268C16C536841
:1048580023F400230B43536010BD2DE9F0410446B7
:104868000E4615461F46DDF818802268D36936EAD9
:1048780003030CBF01230023AB4201D000201CE03E
:10488800B8F1FF3FF2D002F029FAC01B404520687A
:10489800036802D8B8F1000F11D123F4D073036074
:1048A800836823F0010383602023C4F88430C4F8AC
:1048B80088300023032084F88030BDE8F0815A074F
:1048C800D3D5C3691B05D0D54FF4006303620368D1
:1048D80023F4D0730360836823F0010383602023EB
:1048E800C4F88430C4F88830C4F88C30E1E72DE986
:1048F800F7439846D0F884300446202B0E461746D6
:104908004FD100294BD0002A49D090F88030012B94
:1049180047D00123002580F880302123C0F88C502F
:10492800C0F8843002F0DAF9A3688146B3F5805FF5
:10493800A4F85470A4F8567003D123690BB935460E
:104948001E46002384F88030B4F856204B4692B2B5
:10495800CDF8008042B940212046FFF77EFF48B9D4
:104968002023C4F8843006E0002280212046FFF787
:1049780074FF18B1032003B0BDE8F08322685EB964
:1049880035F8023BC3F308039362B4F85620013AA2
:1049980092B2A4F85620D7E716F8013BF4E70120B5
:1049A800E9E70220E7E773B500260446C0F88C6003
:1049B80002F094F9236805461B681A0718D423687F
:1049C8001B685B070AD56FF07E43002200934FF403
:1049D80080012B462046FFF740FFA8B9202300207E
:1049E800C4F8843084F88000C4F88830E0660CE0AD
:1049F8006FF07E43324600934FF400110346204681
:104A0800FFF72BFF0028DAD0032002B070BD10B5E5
:104A1800044650B3D0F884301BB980F88030FFF7D3
:104A2800AFFB24232268C4F884301368204623F09F
:104A380001031360FFF756FD012816D0A36A13B1CE
:104A48002046FFF7B5FE23682046BDE810405A68A7
:104A580022F490425A609A6822F02A029A601A68F0
:104A680042F001021A60FFF79EBF012010BD00004E
:104A7800002310B581658168A0F85C20B1F5805FDE
:104A8800A0F85E20036731D103696BBB40F2FF13C6
:104A9800A0F860300023C0F88C302223C0F888309A
:104AA80003689C6844F001049C60446EB4F1005FA4
:104AB8002CD1B0F86840944228D8B1F5805F23D152
:104AC80004691C4A1C49002C08BF0A4602670022D8
:104AD80080F880201A6842F480721A609A6842F05E
:104AE80080529A60002010BDFF23D1E721B90369E5
:104AF800002BF9D07F23CBE7B1F1805FC8D10369E0
:104B0800002BF7D03F23C3E70A4ADFE7B1F5805F00
:104B18000ED10469094A0A49002C08BF0A460267EF
:104B2800002280F880201A6842F490721A60D9E74F
:104B3800024AF4E78142000CB943000C9141000C91
:104B48000B42000CD0F8883010B4202B1BD1B9B11F
:104B5800B2B190F88030012B15D0012380F8803055
:104B680000230A4CC3660368A34206D05C6824028B
:104B780042BF1C6844F080641C6010BCFFF778BF1B
:104B8800012010BC70470220FBE700BF00800050E6
:104B9800F8B5C0F30B0686B920F47F650A4F25F0F7
:104BA8000F054418AC4201D83046F8BD2846FB69C9
:104BB800984728B905F58055F4E74AF2C536F3E772
:104BC80043F65C26F0E700BFD468000C2DE9F74FE8
:104BD800194F80467B6889461546984700248026E9
:104BE800164BC0F3410013F820A07B69DFF850B0E2
:104BF8000093B6FBFAF25946009B08EB04000192B9
:104C080098470028019A0BDA43F65C2003B0BDE808
:104C1800F08F04F18003AB4294BF80262E1BE8E797
:104C28005946BB6909EB040098470028ECDB34447B
:104C3800A542EED80020E9E7D468000C946A000C7D
:104C48007C9D023008B54FF480514FF4A030FFF737
:104C58009FFF48B9BDE808404FF480524FF4A03197
:104C68004FF49830FFF7B2BF08BD00002DE9F743B5
:104C7800DFF878800546D8F804300F461446984780
:104C88001B4BC0F3410013F82090B5FBF9F309FB67
:104C980013533BBBB4FBF9F63CB909FB06F6A41B5E
:104CA8000FD1204603B0BDE8F08332463946D8F824
:104CB800143005F5983098470028EEDA43F65C245E
:104CC800EFE705F598300122D8F8143001A93044EF
:104CD80098470028F2DB224601A9B81902F07AF9B0
:104CE8000024DEE74AF2C534DBE700BFD468000CD5
:104CF800946A000C2DE9F04F861806F6FF7525F426
:104D08007F6525F00F0585B0B5F5805F04460191F4
:104D180004D943F65C2005B0BDE8F08FDFF8708158
:104D2800D8F80430984704225A4BC0F3410053F88E
:104D38002070D8F8143058480093FBB2B2FBF3F255
:104D480003A9009B9847039B5A1C02330ABF0123FF
:104D580003920393002D34D024F47F6B2BF00F0BB8
:104D6800A5EB0B010BF59830FFF712FF0028D2D105
:104D7800B5F5BC7FAA4628BF4FF4BC7AD34529D3E2
:104D8800B5F5BC7F5ED30823FFB2B3FBF7F7434DFD
:104D98003A4629464248009B9847B6F5BC7F5CD8FE
:104DA800042203A93F4802F015F9394B3A463B491A
:104DB8003D489B69984708B18742AAD1FFF742FF4F
:104DC800A9E74FF480514FF49830FFF7E1FE00282F
:104DD800C2D0A0E70BF18003534594BF4FF0800980
:104DE800AAEB0B095FFA87F8B9FBF8F82B4942469A
:104DF800009B0BF5A03098475E4516D909EB0B03CD
:104E08009C4212D2A3455A4638BF2246111BA2EB38
:104E18000B009E4294BFC2EB0602C2EB0302019B49
:104E280019441E4B184402F0D5F8194B42469B69A9
:104E38001A490BF59830984710B180457FF469AF4F
:104E4800CB449BE74FF4BC724FF498314FF4A03039
:104E5800FFF7BCFE002896D05DE7B4F5C07F9FD26F
:104E6800B4F5BC7F224638BF4FF4BC72019B111BBE
:104E7800A2F5BC700B44B6F5C07F94BFC2EB060226
:104E8800C2F5C0721946284402F0A4F888E700BFAA
:104E9800D468000C946A000C7C4101007C9D0230AF
:104EA80078410100809D0230783101002DE9F04100
:104EB800534D88B00020AB689847002876D104226B
:104EC80002A9FFF7D3FE044600287DD104224FF43F
:104ED800BE7003A9FFF7CAFE0446002874D1494EE4
:104EE800029BB34203D1039B013B033370D96B6828
:104EF8009847454BC0F3410053F8207004224FF403
:104F0800805006A9FFF7B2FE044600285CD10422AF
:104F180041F27C1007A9FFF7A9FE0446002853D1E7
:104F2800069B4FF48051B3424FF4983012D1079B3F
:104F3800013B03330ED8FFF72BFE0446002843D16C
:104F48004FF480524FF498314FF4A030FFF73EFEF3
:104F5800044639E0FFF71CFE0446002834D1014618
:104F680080222A4801F080FFAB69284DFFB20193E7
:104F780004F18003B3F5805F94BF4FF080084FF0D1
:104F8800000804F59830B8FBF7F22946019B444421
:104F98009847B4F5805FEBD3FFF754FE044698B901
:104FA800042204A90496FFF7A5FE10B143F65C2479
:104FB8000AE0012304224FF4BE7005A90593FFF708
:104FC80099FE04460028F1D1204608B0BDE8F081DA
:104FD800042241F27C1007A9FFF748FE0446002886
:104FE800F2D1079B5A1E033206D8039A934203D381
:104FF8000233E9D1012AE7D1FFF724FEA8E700BF71
:10500800D468000C1281DEC0946A000C7C9D0230CA
:10501800FEF746BE08B5114B83F30A88104800F026
:10502800E5F958B900F05FFA40B9FEF761FE28B912
:10503800FEF764FF28B1FEF7DDFF20B1FFF7E8FFB8
:1050480005E0FEF74DFF00F075F900F06BFA00F08F
:105058005DF900F05FF8002008BD00BF00040230D1
:10506800C097023070B599B14B1E0B4010D1D0E9F2
:10507800062406250C2605FB0424056A00F13002E7
:1050880006FB0522142502EB8402446A9C4201D1E6
:10509800002070BD05FB032006698E42F9D001335C
:1050A800F4E7000001F00C0370B50C2B0CBF15469B
:1050B80005464A060C46C1F380161BD58B0658BF19
:1050C8002835AB6913F8026C84F00803C3F3C003F6
:1050D800B3EBD61F01D0FFF79BFF402E0DD0412E1A
:1050E8000FD100F0B3FB04460146094800F03CFA32
:1050F800204670BDFFF78CFFE6E7284600F018FA57
:10510800F6E76FF08300286000F04DFDF0E700BF80
:10511800F80B023041DF7047014B1860704700BF41
:10512800D09702300D4B37B51C6800230C4D019306
:105138006CB120462B6801A99847C0B20528607059
:1051480008D10199606800F013FA012363702046C2
:1051580003B030BD0128FAD0A468E9E7C897023047
:10516800D0970230C9B20129064B417005D11A689F
:105178002AB101781278914201D3034A1068186065
:10518800704700BFC8970230CC970230F8B50F4E71
:105198000446306815461A4618B1237807789F42A6
:1051A8000BD3A060346060682B4600F0F7F9204606
:1051B800BDE8F8400121FFF7D5BF0646806810B169
:1051C80007789F42F9D3A060B460ECE7CC9702302F
:1051D80038B50546FFF7A6FF044600F0D3F905B138
:1051E8002C606068BDE8384000F002BA70B572B64D
:1051F800BFF36F8F1446EFF30B855FF0000C002AA6
:105208001FBF8CF30B886C46954683F30B880F4AB7
:105218000123136062B6BFF36F8F0E4600F064FB84
:1052280072B6BFF36F8F314600F074FB5FF0000C6D
:10523800002C1EBF8CF30B88A54685F30B88034C06
:105248000025256062B6BFF36F8F70BDD49702301A
:10525800402010EA0E0023D001B500F04BFEBDE857
:10526800044088421CD072B6BFF36F8FEFF30982F7
:105278001EF020031CBF22E9F00F083A80E8044022
:10528800B1E804401EF020031CBF0832B2E8F00F5A
:105298000B6882F3098883F30B8862B6BFF36F8FBC
:1052A80070470000EFF308807146EFF30982EFF3CF
:1052B8000B830CB406B4FFF7F5FE864606BC0CBC9F
:1052C80000F0080001F00801401A01DC12DB704709
:1052D8000CB41EF020031CBF2DE9F00FBDF1080D22
:1052E800094C254626462746A046A146A246A3467F
:1052F80030B4704730BC1EF020031CBF1DF1080DF0
:10530800BDE8F00F06BC7047A5EDF5FE084BDA685E
:1053180082F07F4282F47F0242F48042DA60002207
:105328001A765A76DA76DA77602283F8222070477E
:1053380000ED00E07047000043B2002B08DB0122BB
:1053480000F01F0002FA00F0024A5B0942F823004D
:105358000020704700E100E043B2002B0DDB012282
:1053680000F01F0002FA00F05B09054A203342F8FA
:105378002300BFF34F8FBFF36F8F0020704700BF2C
:1053880000E100E043B2002B09DB012200F01F001E
:1053980002FA00F05B09034A603342F82300002058
:1053A800704700BF00E100E0009A0A4B9A420FD113
:1053B8000122904301460246034604460546064636
:1053C8000746804681468246834684468646044789
:1053D800FEE70000A5EDF5FE08B500214FF0FF300F
:1053E80001F084FD0028F8D130BFF6E710B5044677
:1053F80000F062FF00F09AFE00F02EFE01F0AAFC19
:1054080010B90223236010BD43F6DA30FBE7F0B58C
:1054180000B3F9B11824826900F1300303EB820369
:10542800C2690C2604FB02330022056A954207D1A3
:1054380083680020C3F3802343F002030B60F0BDB0
:1054480006FB02F4E718BF683F0701D5E4580CB91A
:105458000132EBE743F6DA30F1E7EFF3148381F03A
:105468000201C1F3400161F3000383F31488BFF321
:105478006F8F0020704710B50446084611460AB9D8
:10548800002010BDF8B103F00602062A19D09A07C9
:1054980019D50822A30758BF42F00402E40709D52A
:1054A800EFF39483DB074CBF42F0040222F00402BE
:1054B80042F0120214F0C0FB0028E1D16FF07F0027
:1054C800DFE70122E6E74CF2DA20DAE7884206D085
:1054D800830706D581F00200C0F340007047002022
:1054E80070470120704708B562B6FEF7EBFB00F085
:1054F800A3FD002843F6DA3008BF002008BD0000ED
:10550800014B1868704700BFAC6A000C014B1B6860
:1055180018687047AC6A000C014B1B6858687047E4
:10552800AC6A000C0122014B1A607047D897023010
:1055380010B504460A4B22891B686168586806231F
:1055480050F8140CFFF797FF10B10323236010BD28
:10555800044B1B68012BF8D100F034F9F5E700BFC4
:10556800C4970230D897023004460D46A54628470E
:10557800036923B119604FF0EE3343617047036844
:105588009962704704484FF080510160BFF34F8F14
:10559800BFF36F8F7047000004ED00E02DE9F8437A
:1055A80004461E460068114B9046A268A0F1080503
:1055B80040E90233503890420F4601D2FFF728FDE8
:1055C800A5F1480948220021484601F04DFC4FF05A
:1055D800807345F8043C6FF0020345E9036745F81A
:1055E800208CC4E90093BDE8F88300BFA5EDF5FE63
:1055F800836883F30B880368283383F3098840683A
:1056080070470000054A1368013303F0070313606D
:10561800034A0133801A03EBC0007047489C0230EC
:10562800DC97023018B1024B013803EBD000704709
:10563800DC97023010B5064800F0CAFC044628B1D1
:105648008822002101F010FC00236360204610BD71
:10565800DC970230014608B5044800F0CAFC00286F
:105668000CBF6FF0FC00002008BD00BFDC970230C3
:10567800014610B5EFF3108472B6034800F0B3FC8E
:1056880084F3108810BD00BFDC970230F0B50346E4
:10569800EFF3108672B60024224600F14405406CF0
:1056A80068B9C2B11068012CD0F88450156003D1D4
:1056B8005A6922EA0101596186F31088F0BDC7686A
:1056C8003F687F698F4204BF2A46013400F1840590
:1056D800D0F88400E4E71046EEE7000030B5094C46
:1056E800024661680023084640B105686D68954226
:1056F80005D11BB1826860609A60816030BD034645
:105708008068F1E74C9C023003689A68DB6812F401
:10571800806F05D18B422CBF00206FF0FA007047D4
:105728008B420CBF00206FF0FA00704738B5044672
:105738002AB10B689B68DB050FD5002038BD0B4BE1
:105748001B685D681C2D01D1FFF762FC002255F82B
:105758001C3C99692C338A4202D16FF0FC00EDE7BA
:1057680053F8040FA042E8D00132F4E7C49702309E
:1057780038B5FFF757FF0D460446FFF76BFF28B90A
:10578800A369AB4218BF0024204638BD0024FBE7BC
:10579800F8B504461E460F46154600213022103043
:1057A80001F062FB064BE7601B685B68C4E90465AF
:1057B8001C3BA360069BA3612368E361F8BD00BF9F
:1057C800C4970230064B1B685B681C2B04D053F847
:1057D8001C3C0BB1586870474FF0FF30704700BF52
:1057E800C497023010B5FFF71DFF0446FFF732FFDC
:1057F80050B9FFF7E7FFE3685B681B685B688342A3
:1058080018BF0024204610BD0024FBE7064B10B546
:105818001B685C681C2C01D1FFF7FAFB54F81C3C90
:105828009868C0F3802010BDC497023038B505468B
:1058380048B100F0F2FBB5EBD07F044601D0FFF78A
:10584800E7FB204638BDFFF7BDFFF4E72DE9F0413F
:105858000823882240F26C41154800F08BFB002396
:10586800144E154F73607B6000F0DAFBDFF84C8054
:10587800304600F085F80446A8B1394680234246F0
:1058880000F0EAF80546204600F04EF9206804F1D9
:105898000801FFF7BCFD08B1FFF7BAFB294620460F
:1058A80000F04EFAE4E7BDE8F04100F0BFBA00BFEF
:1058B800DC970230D89C02304C9C0230549C023059
:1058C80030B56FF00304002300F13002241A52F8B7
:1058D800041B29B1D0F8801054F8125019444D60B7
:1058E8000833202BF3D130BD084B094A1B6810B58B
:1058F8005B68044619615A61D1E90223D1E90001C4
:10590800A047044600F04FF9204610BDC497023066
:10591800EDEEEEEE10B5094C23685B685A69084B4A
:105928009A4208BF0860FFF7FDFB2368834203D053
:10593800BDE81040FFF726BE10BD00BFC497023077
:10594800EDEEEEEE70B505460C46EFF30583C3F3B6
:1059580008030BB1FFF75CFB084B1A689368A34276
:1059680002D2D168A14206D2126821462846BDE873
:105978007040FFF73BBC00231A46F6E7D49C023080
:10598800F8B5054608B9FFF743FB2E4E346814F105
:10599800290F54D82C4B196804F128038B424ED296
:1059A800D4E9063206200C3300FB0233E043226AB6
:1059B80002EB42021344626A02EB82021344B0EB28
:1059C800830F4FEA830202D3A318994201D2FFF74B
:1059D8001FFB23681D4A1B0C1B04934201D0FFF7D1
:1059E80017FB2388B3F5817F01D3FFF711FB6368A9
:1059F800002B01DAFFF70CFB154A176807F14C0377
:105A08001360144A1268934201D9FFF701FBD4E9E5
:105A1800063206210C3301FB0233226A3C6002EB9A
:105A280042021344626A02EB82021344326802EBB8
:105A3800830333606B68BB646F603846F8BD00272A
:105A4800FBE700BFE48F0230A06A000C00005F5F34
:105A5800E88F0230A46A000C2DE9F04F85B00F469C
:105A680090460646029300B109B9FFF7D1FAD6F875
:105A780000A0DAF818200AF1300303EB820301933F
:105A8800DAF81C40264BD3F8009094B10C2000FBA8
:105A980004941C60234B1B689C4201D9FFF7B8FA99
:105AA80000242546DAF81C30AB4202D9B9F1000FC0
:105AB80003D1204605B0BDE8F08F0C23182103FB65
:105AC80005F2019B02EB090B01FB0530002342F8AC
:105AD80009004269CBF8083014438268CBF80460A7
:105AE800930516D5B8F1000F02D0029B802B03D086
